:100000000C9446000C9465000C9465000C946500FB
:100010000C9465000C9465000C9465000C946500CC
:100020000C9465000C9465000C9465000C946500BC
:100030000C9465000C9465000C9465000C946500AC
:100040000C944D010C9465000C948D020C94C50227
:100050000C9465000C94C6010C9465000C9465002A
:100060000C9465000C9465000C9465000C9465007C
:100070000C9465000C9465000C94EE020C9429031A
:100080000C9465000C9465000C94650011241FBE4F
:10009000CFEFD0E1DEBFCDBF11E0A0E0B1E0E2E004
:1000A000FAE100E00BBF02C007900D92AC31B1073E
:1000B000D9F722E0ACE1B1E001C01D92A136B20750
:1000C000E1F70E9470000C94FF0C0C94000017BA2A
:1000D0008FEF88BB84BB15BA8FB780688FBF089538
:1000E000CF93DF93CDB7DEB7C25AD1090FB6F894DC
:1000F000DEBF0FBECDBF66B283B30E9467002BE3A5
:1001000030E049E350E06AE370E0CE018D960E9452
:10011000020CE9ACFAAC21960EAD1FAD2197CE01D1
:100120008D5B9F4F0E9463076596CEACDFAC6597F1
:1001300041E060E0CE0183579F4F0E944B0243E2B3
:1001400050E061E270E082E290E00E946909C356EB
:10015000DF4F2883CD59D040C256DF4F3883CE5968
:10016000D040C156DF4F4883CF59D040C056DF4FF3
:100170005883C05AD040CF55DF4F6883C15AD04012
:10018000CE55DF4F7883C25AD040C156DF4FA8808A
:10019000B980CF59D040C756DF4FE881F981C9599E
:1001A000D04080E094E00995812C912C01C0672C0F
:1001B0002396EEADFFAD2397099576B283B364E045
:1001C00070E080E090E0F801099567E080E191E05F
:1001D000F701099562E070E081E090E0F80109958F
:1001E00063E088E191E0F7010995671461F0A79653
:1001F0008EAC9FACA797672D862DF601099590E0F0
:10020000F40109954C0160E070E082E090E0F801B3
:10021000099564E0C401F7010995672D862DF60163
:10022000099580FF03C085B38F5F85BB672D862D41
:10023000F601099581FF03C085B3815085BB672D09
:10024000862DF601099582FF09C0EDA5FEA560E0A7
:1002500070E08FE10995E9A9FAA9099560E070E0DD
:1002600083E090E0F8010995CE014796F5010995E4
:1002700064E1CE014896F7010995CE010196F5019A
:1002800009958981833409F092CFCF55DF4FE881FA
:10029000F981C15AD04009958ACF1F920F920FB6AB
:1002A0000F9211248F938091CF01811101C015BA53
:1002B0008091CF018F5F8093CF018F910F900FBE00
:1002C0000F901F90189520911902211140C02FEF17
:1002D00021BF23B7287F23BF8034910511F148F453
:1002E00088309105B1F080329105B9F0019749F558
:1002F0000CC0811521E09207E1F0811524E09207FE
:10030000E1F080389105E9F410C083B7816083BFC4
:100310001BC083B7826083BF17C083B7836083BF6E
:1003200013C083B7846083BF0FC083B7856083BF6A
:100330000BC083B7866083BF07C083B7876083BF66
:1003400003C083B7876083BF81E08093190208955B
:1003500093B79F7C93BF823041F0833051F081305E
:1003600059F483B7806183BF089583B7806283BFE8
:10037000089583B7806383BF089581BF089583B7CD
:10038000887F83BF12BE1092190208951F920F92A8
:100390000FB60F9211240BB60F922F933F938F93AA
:1003A0009F93EF93FF9384B190E09093A801809383
:1003B000A70125B18091A7019091A801922B90935C
:1003C000A8018093A7018091A6018430A0F48091B8
:1003D000A6018F5F8093A6012091A7013091A8010B
:1003E0008091A9019091AA01820F931F9093AA0175
:1003F0008093A90143C0E091AB01F091AC018091E1
:10040000A9019091AA019595879595958795EE0FED
:10041000FF1FE154FE4F918380831092AA01109236
:10042000A9011092A6012091AB013091AC018091FD
:10043000AD019091AE012817390754F48091AB01BA
:100440009091AC0101969093AC018093AB0104C0F4
:100450001092AC011092AB0187B1807E87B9E09118
:10046000AB01F091AC01EE0FFF1FE155FE4F808113
:10047000918127B18F719927822B87B9FF91EF91D5
:100480009F918F913F912F910F900BBE0F900FBEB8
:100490000F901F9018951092190223B7277B23BF46
:1004A000623041F0633051F0613059F423B7206479
:1004B00023BF07C023B7286023BF03C023B7286426
:1004C00023BF27B72E7F27BF27B72D7F27BF4230F7
:1004D00041F0433051F0413071F427B7216027BF1C
:1004E0000AC027B7226027BF06C027B7216027BFF1
:1004F00027B7226027BF28EA31E0FC01318320833F
:100500002DEB31E03783268323E631E035872487DE
:100510002FEB31E03787268708951F920F920FB691
:100520000F9211240BB60F928F939F93EF93FF932B
:100530008BB19AB1887180936101E0916301EF5FA3
:10054000EF7180916201E81304C082E08093610141
:1005500011C09CB1E093630180916101882331F067
:10056000F0E0EA59FE4F88E5808304C0F0E0EA59E4
:10057000FE4F9083FF91EF919F918F910F900BBE53
:100580000F900FBE0F901F9018951F920F920FB6ED
:100590000F9211240BB60F928F939F93EF93FF93BB
:1005A0009091650180916401981302C055980BC029
:1005B000E0916401EF5FEF71E0936401F0E0EA57CE
:1005C000FE4F80818CB9FF91EF919F918F910F9099
:1005D0000BBE0F900FBE0F901F9018951F920F9299
:1005E0000FB60F9211240BB60F928F939F93EF9338
:1005F000FF9380919B0090919A00887180931C01D9
:10060000E0911E01EF5FEF7180911D01E81304C0BE
:1006100082E080931C0112C090919C00E0931E0127
:1006200080911C01882331F0F0E0EF5DFE4F88E5FA
:10063000808304C0F0E0EF5DFE4F9083FF91EF9167
:100640009F918F910F900BBE0F900FBE0F901F9038
:1006500018951F920F920FB60F9211240BB60F929E
:100660008F939F93EF93FF939091200180911F01AF
:10067000981306C0EAE9F0E080818F7D80830EC088
:1006800080911F018F5F8F7180931F01E0911F0187
:10069000F0E0EF5BFE4F808180939C00FF91EF9133
:1006A0009F918F910F900BBE0F900FBE0F901F90D8
:1006B00018956823442321F0861721F080E00895DF
:1006C000611180E00895862B08958623089586237E
:1006D0000895862B80950895862786230895609532
:1006E0008623089586270895CF92DF92EF92FF9296
:1006F0000F931F93FC010081118122813381FB0143
:10070000C080D180E280F380FC01C082D182E2828D
:10071000F382FB0100831183228333831F910F91A6
:10072000FF90EF90DF90CF900895FB012081FC01B6
:100730002083222339F0DB01119631969D9191930C
:100740009111FCCF0895CF93DF93EC019881992309
:1007500099F0FE01319620E030E0492F50E0461735
:10076000570731F0DE01A20FB31F9C932F5F3F4F5D
:1007700091919111F2CF02C020E030E0FE01E20F32
:10078000F31F1082DF91CF9108952F923F924F92E5
:100790005F926F927F928F929F92AF92BF92CF9211
:1007A000DF92EF92FF920F931F93CF93DF9300D0CE
:1007B00000D0CDB7DEB72C011B014B0177231CF411
:1007C0002FEF821A920A95948794181419040CF446
:1007D00051C06AC09601DD209CF1F5014081518134
:1007E000F401608171816417750754F58C010A0D5D
:1007F0001B1DD401BC82AB82BA82A982EB81FC8131
:100800007183608311965C934E932E193F09C2F059
:10081000F80140815181E981FA8160817181080F7D
:10082000191FE80FF91FFA83E983EB81FC81E80FB8
:10083000F91FFC83EB83A80FB91F64177507F4F247
:10084000FFEFCF1ADF0A22E0A20EB11CE2E08E0E0B
:10085000911CC614D70409F0BDCF4701FF201CF43A
:10086000FFEF8F1A9F0A9594879418141904E4F4E3
:10087000740101C07401821493047CF76401CE18E2
:10088000DF085601AA0CBB1CA40CB51C880C991CD3
:10089000840C951C31016E187F08C701880F991FC1
:1008A00091958195910996CF0F900F900F900F9091
:1008B000DF91CF911F910F91FF90EF90DF90CF903C
:1008C000BF90AF909F908F907F906F905F904F9070
:1008D0003F902F900895861797070CF4CB01089549
:1008E0009B01672B11F408959A01B9010E947C0CB9
:1008F000AC01822F932F41155105B1F70895FC01EA
:10090000908180ED890F8A30D0F4319620E030E07C
:10091000A901440F551F220F331F220F331F220F2F
:10092000331F420F531F292F30E020533109240F6A
:10093000351F919180ED890F8A3050F302C020E07D
:1009400030E0C901089586230895009739F020E02A
:1009500030E02F5F3F4F82179307D9F7089587FF45
:1009600008C0919581959109992791958195910953
:1009700008958F779927089591FF08C091958195E3
:1009800091099370919581959109089591700895B9
:10099000615021E030E002C0220F331F6A95E2F778
:1009A000A90141505109B90168237923672B29F026
:1009B00084239523821B930B089584239523089504
:1009C0009DEC899F912D1124969596959695392F9A
:1009D000330F232F220F220F230F821B20E1929F20
:1009E000800D11240895982F92959F70990F292FAB
:1009F000220F220F920F8F70890F0895FC01DB01E7
:100A0000A65EBD4F1C921616170614F59081911123
:100A10000CC017C0919191110DC015C081932F5F2B
:100A20003F4F26173707D4F313C0AAE1B2E031963F
:100A300020E030E09D932F5F3F4F6217730751F71F
:100A400007C020E030E0F901E65EFD4F80E2E6CF2E
:100A50008AE192E008954F925F926F927F92AF92F7
:100A6000BF92CF92DF92EF92FF920F931F93CF939B
:100A7000DF93CDB7DEB729013A019B01AC01241900
:100A800035094609570989899A89AB89BC89BC010E
:100A9000CD016A197B098C099D090E946C0CA80183
:100AA000970124193509460957090E94B20CCA0159
:100AB000B9016A0D7B1D8C1D9D1DDF91CF911F918A
:100AC0000F91FF90EF90DF90CF90BF90AF907F900D
:100AD0006F905F904F90089570E06115710599F0E7
:100AE00041E050E021E030E090E0FA01E89FA00111
:100AF000E99F500DF89F500D11242F5F3F4F621753
:100B0000730798F702C041E050E0CA010895FC0164
:100B10002081222341F0319680E090E001962191DE
:100B20002111FCCF089580E090E00895CF93DF93EA
:100B3000EC010E9487059C012150310962F0FE0101
:100B4000E80FF91F9291903219F09950923018F4F1
:100B500021503109B8F7C20FD31F1982C901DF91A3
:100B6000CF910895CF93DF93EC010E9487059C01FC
:100B7000215031091216130684F4DE01A80FB91FA3
:100B8000FE0180E090E040815E9151934C9301968C
:100B90002150310982179307B4F3DF91CF91089563
:100BA0008F929F92AF92BF92CF92DF92EF92FF927D
:100BB0000F931F93CF93DF936B017C01DC01CB017B
:100BC000FF203CF488279927DC018C199D09AE0988
:100BD000BF09BC01CD0110E00F2EFAE08F2E912C41
:100BE000A12CB12CF02D01C0102F01E0010FC12F5D
:100BF000D0E0C65EDD4FA50194010E94B20C605D9D
:100C00006883622F732F842F952F161617061806E8
:100C1000190654F3FF2044F4E02FF0E0E65EFD4FA8
:100C20008DE2808302E0010FE02FF0E0E65EFD4FF1
:100C300010828AE192E00E94B2058AE192E0DF919F
:100C4000CF911F910F91FF90EF90DF90CF90BF90C9
:100C5000AF909F908F9008950F931F93CF93DF9342
:100C6000EC01992324F4882799278C1B9D0B20E005
:100C70000AE010E001C0232F31E0320FE22FF0E054
:100C8000E65EFD4FB8010E947C0C805D8083862F5C
:100C9000972F181619067CF3DD2344F4E32FF0E0B8
:100CA000E65EFD4F8DE2808332E0320FE32FF0E00D
:100CB000E65EFD4F10828AE192E00E94B2058AE171
:100CC00092E0DF91CF911F910F910895CF93AC01E6
:100CD000E0E0C1E0CE0FF0E0E65EFD4F9A01ADEC42
:100CE000BCEC0E94D10C9695879596958795969524
:100CF00087959C01220F331F880F991F880F991F1A
:100D0000880F991F820F931F9A01281B390BC90165
:100D1000805D80839A010E94D10CAC015695479565
:100D20005695479556954795EC2F4115510589F6EF
:100D3000EC2FF0E0E65EFD4F10828AE192E00E9427
:100D4000B2058AE192E0CF910895982F92959F7015
:100D5000990F292F220F220F920F8F70890F08955C
:100D6000AC019C01ADECBCEC0E94D10C9695879532
:100D70009695879596958795BC01660F771F9C0180
:100D8000220F331F220F331F220F331F260F371F4F
:100D9000421B530B342F20E1829F300D1124832FEF
:100DA0000895CF92DF92EF92FF92CF93DF93CDB76A
:100DB000DEB728970FB6F894DEBF0FBECDBF6B012C
:100DC0007C0169837A838B839C832D833E834F834D
:100DD0005887C216D306E406F5063CF4BE016B5FE5
:100DE0007F4FCE0101960E9474038D819E81AF8159
:100DF000B885892B8A2B8B2B71F469817A818B8141
:100E00009C8120E030E0A9010E94B20C61157105BF
:100E10008105910529F46D817E818F81988505C0BA
:100E20006D837E838F839887F6CF28960FB6F894CC
:100E3000DEBF0FBECDBFDF91CF91FF90EF90DF906F
:100E4000CF90089590E002C0959587956A95E2F756
:100E500081700895EAE1F2E090E020E850E341E398
:100E6000382F322311F0408301C0508326959F5FB5
:100E700031969830A9F7109222028AE192E0089503
:100E8000A42FB0E0109761F021E030E0E1E0F0E065
:100E9000EE0FFF1F2F5F3F4FA217B307C8F702C027
:100EA000E1E0F0E031976E237F238E239F23862796
:100EB00097276823792302C0660F771F4A95E2F7C8
:100EC000862B972B0895FC019FB78FB78F778FBF25
:100ED0009FBF8CE695E09183808387E895E09383BC
:100EE000828382EB95E09583848380E497E0978307
:100EF000868389E593E09187808787E693E09387EF
:100F0000828789E693E0958784878CE693E09787CC
:100F100086878FE693E0918B808B82E793E0938BBB
:100F2000828B83E693E0958B848B85E693E0978BA9
:100F3000868B84E793E0918F808F85E993E0938F90
:100F4000828F83EA93E0958F848F85EC93E0978F6F
:100F5000868F8CE296E091A380A386E696E093A329
:100F600082A380ED95E095A384A386E995E097A3FD
:100F700086A38BE694E091A780A780E794E093A7EF
:100F800082A78FE794E095A784A783EA94E097A7C8
:100F900086A785EA94E091AB80AB8FEA94E093ABAF
:100FA00082AB8CEB94E095AB84AB88EC94E097AB90
:100FB00086AB80EE94E091AF80AF83EF94E093AF87
:100FC00082AF8EEF94E095AF84AF8BE295E097AF60
:100FD00086AFDF01A05CBF4F85EA96E011969C9337
:100FE0008E93129680EB96E011969C938E931296B8
:100FF00081ED96E011969C938E93129682E297E093
:1010000011969C938E9312968AE297E08D939C930F
:10101000CF01089580E280933B0210923802ECE306
:10102000F2E081E592E01192E817F907E1F70895FF
:10103000CF93DF9321E080E0A0E3B2E0E4E3F2E0CD
:1010400060E071E001C02F5F9FEF920F913009F4D3
:101050004BC038F0923009F48CC0933009F4CEC004
:101060000EC14091510250915202EA01988190685C
:10107000988340912E0250912F02EA0198819F7728
:1010800098834091390250913A02EA0138813477CD
:101090003C939081432F492794233083992399F0DF
:1010A000943019F4EB0188810AC0903119F4EB01F6
:1010B000898109C0903219F4EB018A8104C090340F
:1010C00011F4EB018B814091510250915202EA01DF
:1010D00098819F77988340912E0250912F02EA01C8
:1010E000988190689883AFCF4091510250915202FD
:1010F000EA0198819160988340912E0250912F02CD
:10110000EA0198819E7F98834091390250913A027A
:10111000EA013881347711963C9311979181432FDE
:10112000492794233183992399F0943019F4EB01E2
:101130008C810AC0903119F4EB018D8109C0903285
:1011400019F4EB018E8104C0903411F4EB018F810E
:101150004091510250915202EA0198819E7F9883FA
:1011600040912E0250912F02EA019881916098835C
:101170006ACF4091510250915202EA0198819260E7
:10118000988340912E0250912F02EA0198819D7F11
:1011900098834091390250913A02EA0138813477BC
:1011A00012963C9312979281432F492794233283BE
:1011B000992399F0943019F4EB0188850AC0903195
:1011C00019F4EB01898509C0903219F4EB018A8585
:1011D00004C0903411F4EB018B8540915102509181
:1011E0005202EA0198819D7F988340912E0250918E
:1011F0002F02EA0198819260988325CFE0915102F5
:10120000F0915202908198609083E0912E02F091CB
:101210002F029081977F9083E0913902F0913A02FA
:101220002081247720933302E4E3F2E09381322F8C
:10123000392793232383992399F0943019F48091CB
:101240000C010AC0903119F480910D0109C090324F
:1012500019F480910E0104C0903411F480910F01B3
:10126000E0915102F09152029081977F9083E0913A
:101270002E02F0912F0290819860908303C0243059
:1012800008F4E1CEDF91CF910895CF93DF93EC0185
:101290000E941808882389F080933B0290913802BD
:1012A000943158F4E0913802F0E0E55CFD4F818321
:1012B000809138028F5F8093380286E1EBE3F2E0A1
:1012C000DE0101900D928A95E1F7CE01DF91CF9179
:1012D0000895CF93DF9300D000D000D0CDB7DEB714
:1012E000FC012FB780E280933B029FB79F779FBF9F
:1012F000F0935202E093510270933A0260933902E4
:1013000050932F0240932E028BE88083E0912E02AF
:10131000F0912F0284E78083A0E3B2E08C93E4E3B2
:10132000F2E0808311968C931197818312968C93AF
:101330001297828313968C938383109238022FBF67
:10134000E0912E02F0912F0280818B68808328E14A
:1013500038E03A83298345E459E05C834B836AE0B3
:1013600078E07E836D833A815C817E8180E090E0CD
:1013700026960FB6F894DEBF0FBECDBFDF91CF919A
:101380000895E0915D02F0915E0290819D7F9083CF
:10139000672B41F0E0915D02F0915E0290819160D7
:1013A000908307C0E0915D02F0915E0290819E7F84
:1013B0009083E0915A02F0915B029081906F90834C
:1013C000E0915D02F0915E029081946090838823A9
:1013D00044F4E0915D02F0915E0290819068908308
:1013E00007C0E0915D02F0915E0290819F7790834B
:1013F00086FF08C0E0915D02F0915E0290819064EA
:10140000908307C0E0915D02F0915E0290819F7B26
:10141000908385FF08C0E0915D02F0915E029081AB
:101420009062908307C0E0915D02F0915E0290812E
:101430009F7D908384FF08C0E0915D02F0915E0281
:1014400090819061908307C0E0915D02F0915E020F
:1014500090819F7E9083E0915D02F0915E02908189
:101460009B7F9083E0915D02F0915E029081946099
:10147000908383FF08C0E0915D02F0915E0290814D
:101480009068908307C0E0915D02F0915E029081C8
:101490009F77908382FF08C0E0915D02F0915E0229
:1014A00090819064908307C0E0915D02F0915E02AC
:1014B00090819F7B908381FF08C0E0915D02F09155
:1014C0005E0290819062908307C0E0915D02F0918E
:1014D0005E0290819F7D908380FF08C0E0915D0255
:1014E000F0915E0280818061808307C0E0915D029F
:1014F000F0915E0280818F7E8083E0915D02F091A9
:101500005E0280818B7F80830895E0915A02F09182
:101510005B0220812F702083E0915D02F0915E02DA
:101520002081206F2083E0915D02F0915E02208196
:1015300022602083892B41F0E0915D02F0915E02F0
:1015400080818160808307C0E0915D02F0915E023E
:1015500080818E7F8083E0915D02F0915E028081C8
:1015600084608083E0915302F0915402808188234B
:1015700014F080E001C080E8908196FF02C0806492
:1015800001C08F7B908195FF02C0806201C08F7D7A
:10159000908194FF02C0806101C08F7EE0915D0266
:1015A000F0915E0290819B7F9083E0915D02F091CB
:1015B0005E02908194609083E0915302F091540216
:1015C0009081992314F4886001C0877F908196FFF1
:1015D00002C0846001C08B7F908195FF02C0826051
:1015E00001C08D7F908194FF02C0816001C08E7F19
:1015F000E0915D02F0915E0290819B7F908308955F
:10160000CF93DF9380E090E00E94850ACBE0D0E0AA
:1016100006C080E090E00E94850A219711F088239F
:10162000C4F3DF91CF91089561E070E00E94C10999
:101630000E94000B0895CF9381E090E00E94850AFC
:10164000C82F0E94000B8C2FCF910895CF93DF936A
:10165000EC018881882351F0219661E070E00E94BE
:10166000C1090E94000B89918111F7CFDF91CF91C1
:1016700008950F931F93CF93DF93FC01D62F8081A2
:10168000882351F08F010F5F1F4F611109C01FC0E8
:10169000CF5FDC1730F401C0C0E0CD1770F017C089
:1016A000C1E061E070E00E94C1090E94000BF801F6
:1016B00081918F018111ECCFF0CFCF5F61E070E0BD
:1016C00080E20E94C1090E94000BCD17B0F3DF91A8
:1016D000CF911F910F910895CF93C82F882349F080
:1016E00061E070E080E20E94C1090E94000BC150DD
:1016F000B9F7CF910895262F8130910581F030F010
:1017000082309105A9F00397E1F0089560E070E060
:1017100080E8820F0E94C1090E94000B089560E0DA
:1017200070E080EC820F0E94C1090E94000B0895B6
:1017300060E070E084E9820F0E94C1090E94000B02
:10174000089560E070E084ED820F0E94C1090E945C
:10175000000B089560E070E081E00E94C10987EE0F
:1017600097E10197F1F700C000000895E0915A0257
:10177000F0915B0287E08083E0915D02F0915E0270
:1017800088E080832FEF83EF91E0215080409040EC
:10179000E1F700C0000060E070E083E30E94C1094F
:1017A00020ED2A95F1F760E070E083E30E94C10923
:1017B00080ED8A95F1F760E070E08BE20E94C1094C
:1017C00095EC9A95F1F7000060E070E08CE00E94E3
:1017D000C10925EC2A95F1F7000060E070E081E096
:1017E0000E94C10987EE97E10197F1F700C0000060
:1017F00060E070E086E00E94C10995EC9A95F1F7EF
:10180000000008951F93CF93DF93EC011FB78FB7AC
:101810008F778FBF70935B0260935A02509354028C
:101820004093530230935E0220935D02FB011082CD
:10183000E0915D02F0915E028FEF8083E0915302B0
:10184000F09154028081887080935C020E94B60BF4
:101850001FBF81EC99E09983888385E89AE09B8398
:101860008A8380E09BE09D838C8384E19BE09F835F
:101870008E838BE19BE09987888786E29BE09B873C
:101880008A8789E39BE09D878C878CE69BE09F8716
:101890008E878AEA9BE0998B888B8BE79BE09B8BFA
:1018A0008A8B8AE59CE09D8B8C8BCE01DF91CF915A
:1018B0001F910895CF93E0915302F0915402C0819B
:1018C000C87080915C028C278C2311F00E94B60BAB
:1018D000C0935C02CF910895DB018F939F930E9488
:1018E000E00CBF91AF91A29F800D911DA39F900D21
:1018F000B29F900D1124089597FB072E16F40094C3
:1019000007D077FD09D00E94EB0C07FC05D03EF410
:10191000909581959F4F0895709561957F4F08959B
:10192000A1E21A2EAA1BBB1BFD010DC0AA1FBB1FE3
:10193000EE1FFF1FA217B307E407F50720F0A21B55
:10194000B30BE40BF50B661F771F881F991F1A94C2
:1019500069F760957095809590959B01AC01BD01EC
:10196000CF010895052E97FB1EF400940E94C90C28
:1019700057FD07D00E94900C07FC03D04EF40C9446
:10198000C90C50954095309521953F4F4F4F5F4F73
:10199000089590958095709561957F4F8F4F9F4FDB
:1019A0000895A29FB001B39FC001A39F700D811D38
:1019B0001124911DB29F700D811D1124911D089558
:1019C0000E94D10CA59F900DB49F900DA49F800DF7
:1019D000911D11240895AA1BBB1B51E107C0AA1F2A
:1019E000BB1FA617B70710F0A61BB70B881F991FC0
:1019F0005A95A9F780959095BC01CD010895F8946A
:021A0000FFCF16
:101A02003132334134353642373839432A30234470
:0C1A1200426F6F742075700052756E00FA
:00000001FF
