:100000000C947B000C949A000C949A000C949A0027
:100010000C949A000C949A000C949A000C949A00F8
:100020000C949A000C949A000C949A000C949A00E8
:100030000C949A000C949A000C949A000C949A00D8
:100040000C949A000C949A000C9421010C94590180
:100050000C949A000C949C000C949A000C949A00B6
:100060000C949A000C949A000C949A000C949A00A8
:100070000C949A000C949A000C9482010C94BD018B
:100080000C949A000C949A000C949A00B80B090CEA
:10009000230C5C0C950CCE0C620D7D0DEC0D070E47
:1000A000480E540E600E6C0E780E9B0E9B0E9B0E2F
:1000B0009B0E9B0E9B0E9B0E9B0E9B0E9B0E9B0EF8
:1000C0009B0E9B0E9B0E9B0E9B0E9B0E9B0E9B0EE8
:1000D0009B0E9B0E9B0E9B0E9B0E9B0E9B0E9B0ED8
:1000E0009B0E9B0E9B0E9B0E9B0E9B0E9B0E9B0EC8
:1000F0009B0E840E900E11241FBECFEFD0E1DEBF09
:10010000CDBF11E0A0E0B1E0E4E2F8E200E00BBF17
:1001100002C007900D92AA3CB107D9F722E0AAECE1
:10012000B1E001C01D92A43DB207E1F70E94060BA9
:100130000C9410140C9400001F920F920FB60F92A3
:1001400011240BB60F922F933F938F939F93EF93AE
:10015000FF9384B190E0909356028093550225B1AD
:100160008091550290915602922B90935602809363
:100170005502809154028430A0F4809154028F5F24
:10018000809354022091550230915602809157027B
:1001900090915802820F931F9093580280935702B8
:1001A00043C0E0915902F0915A0280915702909118
:1001B00058029595879595958795EE0FFF1FE35902
:1001C000FD4F918380831092580210925702109233
:1001D00054022091590230915A0280915B02909111
:1001E0005C022817390754F48091590290915A0201
:1001F000019690935A028093590204C010925A02B9
:100200001092590287B1807E87B9E0915902F0912E
:100210005A02EE0FFF1FE35AFD4F8081918127B1F3
:100220008F719927822B87B9FF91EF919F918F91C1
:100230003F912F910F900BBE0F900FBE0F901F900C
:1002400018951F920F920FB60F9211240BB60F92B2
:100250008F939F93EF93FF938BB19AB188718093A3
:100260000F02E0911102EF5FEF7180911002E8132D
:1002700004C082E080930F0211C09CB1E093110290
:1002800080910F02882331F0F0E0EC5EFD4F88E5AD
:10029000808304C0F0E0EC5EFD4F9083FF91EF910E
:1002A0009F918F910F900BBE0F900FBE0F901F90DC
:1002B00018951F920F920FB60F9211240BB60F9242
:1002C0008F939F93EF93FF9390911302809112026B
:1002D000981302C055980BC0E0911202EF5FEF71C6
:1002E000E0931202F0E0EC5CFD4F80818CB9FF914D
:1002F000EF919F918F910F900BBE0F900FBE0F90BB
:100300001F9018951F920F920FB60F9211240BB6E3
:100310000F928F939F93EF93FF9380919B00909107
:100320009A0088718093CA01E091CC01EF5FEF7170
:100330008091CB01E81304C082E08093CA0112C00F
:1003400090919C00E093CC018091CA01882331F008
:10035000F0E0E153FE4F88E5808304C0F0E0E15314
:10036000FE4F9083FF91EF919F918F910F900BBE65
:100370000F900FBE0F901F9018951F920F920FB6FF
:100380000F9211240BB60F928F939F93EF93FF93CD
:100390009091CE018091CD01981306C0EAE9F0E07A
:1003A00080818F7D80830EC08091CD018F5F8F71A2
:1003B0008093CD01E091CD01F0E0E151FE4F8081CD
:1003C00080939C00FF91EF919F918F910F900BBEB6
:1003D0000F900FBE0F901F9018956823442321F0B3
:1003E000861721F080E00895611180E00895862B42
:1003F00008958623089586230895862B8095089571
:100400008627862308956095862308958627089574
:10041000CF92DF92EF92FF920F931F93FC01008126
:10042000118122813381FB01C080D180E280F38081
:10043000FC01C082D182E282F382FB01008311833E
:10044000228333831F910F91FF90EF90DF90CF9025
:100450000895FB012081FC012083222339F0DB0178
:10046000119631969D9191939111FCCF0895CF9360
:10047000DF93EC019881992399F0FE01319620E0F9
:1004800030E0492F50E04617570731F0DE01A20F48
:10049000B31F9C932F5F3F4F91919111F2CF02C0F8
:1004A00020E030E0FE01E20FF31F1082DF91CF91D8
:1004B00008952F923F924F925F926F927F928F9208
:1004C0009F92AF92BF92CF92DF92EF92FF920F93E3
:1004D0001F93CF93DF9300D000D0CDB7DEB72C01B0
:1004E0001B014B0177231CF42FEF821A920A95947B
:1004F0008794181419040CF451C06AC09601DD20C9
:100500009CF1F50140815181F40160817181641792
:10051000750754F58C010A0D1B1DD401BC82AB82FA
:10052000BA82A982EB81FC817183608311965C930E
:100530004E932E193F09C2F0F80140815181E981A3
:10054000FA8160817181080F191FE80FF91FFA8382
:10055000E983EB81FC81E80FF91FFC83EB83A80F93
:10056000B91F64177507F4F2FFEFCF1ADF0A22E014
:10057000A20EB11CE2E08E0E911CC614D70409F045
:10058000BDCF4701FF201CF4FFEF8F1A9F0A9594FF
:10059000879418141904E4F4740101C074018214DE
:1005A00093047CF76401CE18DF085601AA0CBB1C2B
:1005B000A40CB51C880C991C840C951C31016E1878
:1005C0007F08C701880F991F91958195910996CF52
:1005D0000F900F900F900F90DF91CF911F910F917F
:1005E000FF90EF90DF90CF90BF90AF909F908F9053
:1005F0007F906F905F904F903F902F900895861757
:1006000097070CF4CB0108959B01672B11F4089513
:100610009A01B9010E940F13AC01822F932F41154B
:100620005105B1F70895FC01908180ED890F8A3062
:10063000D0F4319620E030E0A901440F551F220F7D
:10064000331F220F331F220F331F420F531F292F37
:1006500030E020533109240F351F919180ED890F2F
:100660008A3050F302C020E030E0C90108958623AB
:100670000895009739F020E030E02F5F3F4F821758
:100680009307D9F7089587FF08C09195819591093F
:10069000992791958195910908958F7799270895C4
:1006A00091FF08C0919581959109937091958195DD
:1006B0009109089591700895615021E030E002C0E1
:1006C000220F331F6A95E2F7A90141505109B90180
:1006D00068237923672B29F084239523821B930BAE
:1006E00008958423952308959DEC899F912D1124CD
:1006F000969596959695392F330F232F220F220F1B
:10070000230F821B20E1929F800D11240895982FC2
:1007100092959F70990F292F220F220F920F8F70A1
:10072000890F0895FC01DB01A158BD4F1C921616DC
:10073000170614F5908191110CC017C09191911179
:100740000DC015C081932F5F3F4F26173707D4F395
:1007500013C0AFE7B2E0319620E030E09D932F5F09
:100760003F4F6217730751F707C020E030E0F901EF
:10077000E158FD4F80E2E6CF8FE792E008954F9277
:100780005F926F927F92AF92BF92CF92DF92EF9281
:10079000FF920F931F93CF93DF93CDB7DEB729015D
:1007A0003A019B01AC012419350946095709898989
:1007B0009A89AB89BC89BC01CD016A197B098C0976
:1007C0009D090E94FF12A8019701241935094609C5
:1007D00057090E944513CA01B9016A0D7B1D8C1D82
:1007E0009D1DDF91CF911F910F91FF90EF90DF90B2
:1007F000CF90BF90AF907F906F905F904F90089593
:1008000070E06115710599F041E050E021E030E0C1
:1008100090E0FA01E89FA001E99F500DF89F500D6C
:1008200011242F5F3F4F6217730798F702C041E012
:1008300050E0CA010895FC012081222341F0319645
:1008400080E090E0019621912111FCCF089580E095
:1008500090E00895CF93DF93EC010E941B049C016C
:100860002150310962F0FE01E80FF91F9291903298
:1008700019F09950923018F421503109B8F7C20F8D
:10088000D31F1982C901DF91CF910895CF93DF93D0
:10089000EC010E941B049C01215031091216130621
:1008A00084F4DE01A80FB91FFE0180E090E04081D2
:1008B0005E9151934C930196215031098217930711
:1008C000B4F3DF91CF9108958F929F92AF92BF9230
:1008D000CF92DF92EF92FF920F931F93CF93DF930C
:1008E0006B017C01DC01CB01FF203CF488279927B8
:1008F000DC018C199D09AE09BF09BC01CD0110E0D6
:100900000F2EFAE08F2E912CA12CB12CF02D01C0CE
:10091000102F01E0010FC12FD0E0C158DD4FA5011C
:1009200094010E944513605D6883622F732F842FAA
:10093000952F161617061806190654F3FF2044F4CF
:10094000E02FF0E0E158FD4F8DE2808302E0010FDF
:10095000E02FF0E0E158FD4F10828FE792E00E9417
:1009600046048FE792E0DF91CF911F910F91FF90A6
:10097000EF90DF90CF90BF90AF909F908F900895B1
:100980000F931F93CF93DF93EC01992324F48827CF
:1009900099278C1B9D0B20E00AE010E001C0232F5B
:1009A00031E0320FE22FF0E0E158FD4FB8010E9434
:1009B0000F13805D8083862F972F181619067CF3FE
:1009C000DD2344F4E32FF0E0E158FD4F8DE2808316
:1009D00032E0320FE32FF0E0E158FD4F10828FE755
:1009E00092E00E9446048FE792E0DF91CF911F9141
:1009F0000F910895CF93AC01E0E0C1E0CE0FF0E09D
:100A0000E158FD4F9A01ADECBCEC0E946D13969538
:100A1000879596958795969587959C01220F331F0C
:100A2000880F991F880F991F880F991F820F931F96
:100A30009A01281B390BC901805D80839A010E94AD
:100A40006D13AC0156954795569547955695479524
:100A5000EC2F4115510589F6EC2FF0E0E158FD4FE0
:100A600010828FE792E00E9446048FE792E0CF91D8
:100A70000895982F92959F70990F292F220F220F7A
:100A8000920F8F70890F0895AC019C01ADECBCEC06
:100A90000E946D139695879596958795969587955F
:100AA000BC01660F771F9C01220F331F220F331FDB
:100AB000220F331F260F371F421B530B342F20E109
:100AC000829F300D1124832F0895CF92DF92EF92F1
:100AD000FF92CF93DF93CDB7DEB728970FB6F89488
:100AE000DEBF0FBECDBF6B017C0169837A838B8330
:100AF0009C832D833E834F835887C216D306E4061A
:100B0000F5063CF4BE016B5F7F4FCE0101960E945B
:100B100008028D819E81AF81B885892B8A2B8B2B12
:100B200071F469817A818B819C8120E030E0A90198
:100B30000E944513611571058105910529F46D81A8
:100B40007E818F81988505C06D837E838F83988792
:100B5000F6CF28960FB6F894DEBF0FBECDBFDF915B
:100B6000CF91FF90EF90DF90CF90089590E002C07A
:100B7000959587956A95E2F781700895EFE7F2E021
:100B800090E020E850E341E3382F322311F0408316
:100B900001C0508326959F5F31969830A9F7109237
:100BA00087028FE792E00895A42FB0E0109761F0DC
:100BB00021E030E0E1E0F0E0EE0FFF1F2F5F3F4F5C
:100BC000A217B307C8F702C0E1E0F0E031976E2347
:100BD0007F238E239F23862797276823792302C0AC
:100BE000660F771F4A95E2F7862B972B0895FC0135
:100BF0009FB78FB78F778FBF9FBF80E094E09183BF
:100C000080838BE194E09383828386E494E09583F0
:100C1000848384ED95E0978386838DEE91E09187C0
:100C200080878BEF91E0938782878DEF91E09587A6
:100C3000848780E092E09787868783E092E0918BBB
:100C4000808B86E092E0938B828B87EF91E0958B8F
:100C5000848B89EF91E0978B868B88E092E0918F6F
:100C6000808F89E292E0938F828F87E392E0958F65
:100C7000848F89E592E0978F868F80EC94E091A332
:100C800080A38AEF94E093A382A384E694E095A3E3
:100C900084A38AE294E097A386A38FEF92E091A7C2
:100CA00080A784E093E093A782A783E193E095A7D0
:100CB00084A787E393E097A786A789E393E091ABA6
:100CC00080AB83E493E093AB82AB80E593E095AB9C
:100CD00084AB8CE593E097AB86AB84E793E091AF70
:100CE00080AF87E893E093AF82AF82E993E095AF5E
:100CF00084AF8FEB93E097AF86AFDF01A05CBF4F6F
:100D000089E395E011969C938E93129684E495E086
:100D100011969C938E93129685E695E011969C937E
:100D20008E93129686EB95E011969C938E93129675
:100D30008EEB95E08D939C93CF01089580E2809394
:100D4000A00210929D02E1EAF2E086EB92E011929D
:100D5000E817F907E1F70895CF93DF9321E080E0EA
:100D6000A5E9B2E0E9E9F2E060E071E001C02F5FDF
:100D70009FEF920F913009F44BC038F0923009F494
:100D80008CC0933009F4CEC00EC14091B602509190
:100D9000B702EA019881906898834091930250913C
:100DA0009402EA0198819F77988340919E02509126
:100DB0009F02EA01388134773C939081432F492781
:100DC00094233083992399F0943019F4EB018881AE
:100DD0000AC0903119F4EB01898109C0903219F4ED
:100DE000EB018A8104C0903411F4EB018B814091B6
:100DF000B6025091B702EA0198819F77988340919B
:100E0000930250919402EA01988190689883AFCF41
:100E10004091B6025091B702EA019881916098839F
:100E20004091930250919402EA0198819E7F9883A9
:100E300040919E0250919F02EA01388134771196C9
:100E40003C9311979181432F492794233183992310
:100E500099F0943019F4EB018C810AC0903119F4A7
:100E6000EB018D8109C0903219F4EB018E8104C031
:100E7000903411F4EB018F814091B6025091B7028A
:100E8000EA0198819E7F9883409193025091940249
:100E9000EA019881916098836ACF4091B60250919F
:100EA000B702EA0198819260988340919302509131
:100EB0009402EA0198819D7F988340919E0250910F
:100EC0009F02EA013881347712963C9312979281FF
:100ED000432F492794233283992399F0943019F4AE
:100EE000EB0188850AC0903119F4EB01898509C0AE
:100EF000903219F4EB018A8504C0903411F4EB01AF
:100F00008B854091B6025091B702EA0198819D7F8E
:100F100098834091930250919402EA0198819260E3
:100F2000988325CFE091B602F091B7029081986046
:100F30009083E0919302F09194029081977F908347
:100F4000E0919E02F0919F022081247720939802E5
:100F5000E9E9F2E09381322F392793232383992300
:100F600099F0943019F480910C010AC0903119F471
:100F700080910D0109C0903219F480910E0104C0D6
:100F8000903411F480910F01E091B602F091B70214
:100F90009081977F9083E0919302F09194029081E9
:100FA0009860908303C0243008F4E1CEDF91CF91A4
:100FB0000895CF93DF93EC010E94AC06882389F05B
:100FC0008093A00290919D02943158F4E0919D028B
:100FD000F0E0E056FD4F818380919D028F5F80930A
:100FE0009D0286E1E0EAF2E0DE0101900D928A9531
:100FF000E1F7CE01DF91CF910895CF93DF9300D039
:1010000000D000D0CDB7DEB7FC012FB780E28093CF
:10101000A0029FB79F779FBFF093B702E093B602FD
:1010200070939F0260939E025093940240939302A8
:101030008BE88083E0919302F091940284E78083AF
:10104000A5E9B2E08C93E9E9F2E0808311968C93F4
:101050001197818312968C931297828313968C93A7
:10106000838310929D022FBFE0919302F09194022E
:1010700080818B6880832CEA36E03A83298349EDAE
:1010800057E05C834B836EE976E07E836D833A8123
:101090005C817E8180E090E026960FB6F894DEBFFA
:1010A0000FBECDBFDF91CF910895E091C202F091C4
:1010B000C30290819D7F9083672B41F0E091C20233
:1010C000F091C30290819160908307C0E091C202C9
:1010D000F091C30290819E7F9083E091BF02F091D6
:1010E000C0029081906F9083E091C202F091C302A0
:1010F000908194609083882344F4E091C202F0913F
:10110000C30290819068908307C0E091C202F09181
:10111000C30290819F77908386FF08C0E091C2024E
:10112000F091C30290819064908307C0E091C20265
:10113000F091C30290819F7B908385FF08C0E0916E
:10114000C202F091C30290819062908307C0E09147
:10115000C202F091C30290819F7D908384FF08C0FA
:10116000E091C202F091C30290819061908307C028
:10117000E091C202F091C30290819F7E9083E09142
:10118000C202F091C30290819B7F9083E091C202E2
:10119000F091C30290819460908383FF08C0E09136
:1011A000C202F091C30290819068908307C0E091E1
:1011B000C202F091C30290819F77908382FF08C0A2
:1011C000E091C202F091C30290819064908307C0C5
:1011D000E091C202F091C30290819F7B908381FFD6
:1011E00008C0E091C202F091C302908190629083A6
:1011F00007C0E091C202F091C30290819F7D90836D
:1012000080FF08C0E091C202F091C302808180613A
:10121000808307C0E091C202F091C30280818F7E7B
:101220008083E091C202F091C30280818B7F808332
:101230000895E091BF02F091C00220812F702083B9
:10124000E091C202F091C3022081206F2083E091DF
:10125000C202F091C302208122602083892B41F0D9
:10126000E091C202F091C30280818160808307C057
:10127000E091C202F091C30280818E7F8083E09171
:10128000C202F091C302808184608083E091B80241
:10129000F091B9028081882314F080E001C080E8D9
:1012A000908196FF02C0806401C08F7B908195FF82
:1012B00002C0806201C08F7D908194FF02C0806176
:1012C00001C08F7EE091C202F091C30290819B7FAA
:1012D0009083E091C202F091C30290819460908368
:1012E000E091B802F091B9029081992314F48860DA
:1012F00001C0877F908196FF02C0846001C08B7F10
:10130000908195FF02C0826001C08D7F908194FF23
:1013100002C0816001C08E7FE091C202F091C302E1
:1013200090819B7F90830895CF93DF9380E090E03E
:101330000E941909CBE0D0E006C080E090E00E9456
:101340001909219711F08823C4F3DF91CF910895F3
:1013500061E070E00E9455080E9494090895CF93BF
:1013600081E090E00E941909C82F0E9494098C2FF7
:10137000CF910895CF93DF93EC018881882351F0BA
:10138000219661E070E00E9455080E9494098991BD
:101390008111F7CFDF91CF9108950F931F93CF93D2
:1013A000DF93FC01D62F8081882351F08F010F5FDE
:1013B0001F4F611109C01FC0CF5FDC1730F401C09F
:1013C000C0E0CD1770F017C0C1E061E070E00E948E
:1013D00055080E949409F80181918F018111ECCF89
:1013E000F0CFCF5F61E070E080E20E9455080E947C
:1013F0009409CD17B0F3DF91CF911F910F9108950C
:10140000CF93C82F882349F061E070E080E20E940A
:1014100055080E949409C150B9F7CF910895262F1D
:101420008130910581F030F082309105A9F0039769
:10143000E1F0089560E070E080E8820F0E945508B6
:101440000E949409089560E070E080EC820F0E9491
:1014500055080E949409089560E070E084E9820FC5
:101460000E9455080E949409089560E070E084EDA0
:10147000820F0E9455080E949409089560E070E070
:1014800081E00E94550887EE97E10197F1F700C0CF
:1014900000000895E091BF02F091C00287E08083D0
:1014A000E091C202F091C30288E080832FEF83EFC6
:1014B00091E0215080409040E1F700C0000060E0E2
:1014C00070E083E30E94550820ED2A95F1F760E073
:1014D00070E083E30E94550880ED8A95F1F760E0A3
:1014E00070E08BE20E94550895EC9A95F1F70000A8
:1014F00060E070E08CE00E94550825EC2A95F1F739
:10150000000060E070E081E00E94550887EE97E1FE
:101510000197F1F700C0000060E070E086E00E94F3
:10152000550895EC9A95F1F7000008951F93CF9315
:10153000DF93EC011FB78FB78F778FBF7093C00217
:101540006093BF025093B9024093B8023093C30234
:101550002093C202FB011082E091C202F091C3020B
:101560008FEF8083E091B802F091B902808188709A
:101570008093C1020E944A0A1FBF85E598E09983C3
:10158000888389E199E09B838A8384E999E09D833C
:101590008C8388EA99E09F838E838FEA99E099870C
:1015A00088878AEB99E09B878A878DEC99E09D87F5
:1015B0008C8780E09AE09F878E878EE39AE0998BF4
:1015C000888B8FE09AE09B8B8A8B8EEE9AE09D8BC6
:1015D0008C8BCE01DF91CF911F910895CF93E09135
:1015E000B802F091B902C081C8708091C1028C2705
:1015F0008C2311F00E944A0AC093C102CF91089532
:101600008FEF84BB85BB17BA88BB0895CF93DF9358
:10161000CDB7DEB7C35DD1090FB6F894DEBF0FBEFC
:10162000CDBF0E94000B43E250E061E270E082E235
:1016300090E00E94FD072F8B388F498F5A8F6B8F58
:101640007C8F6B8C7C8C2BE330E049E350E06AE3C9
:1016500070E0CE014D960E94960A2FA038A4E9A40E
:10166000FAA44BA45CA48DA59EA5C053DF4F99831B
:101670008883C05DD040CFA4D8A8CE01C3960E9475
:10168000CC1242E9BE016D5C7F4FCE018F5A9F4F55
:101690000E949912CE0183599F4F0E94F705C157AE
:1016A000DF4FA880B980CF58D040C756DF4FE881C0
:1016B000F981C959D040C353DF4FF983E883CD5C2A
:1016C000D040A996EEADFFADA9976FEFCE018F5A2E
:1016D0009F4F0995CD52DF4F1882C35DD040CE5247
:1016E000DF4F1882C25DD040C153DF4F1882CF5CFC
:1016F000D04010E06894882483F8912EE98DFA8D0B
:10170000CE0189549F4F099586E1FE01E954FF4FB0
:10171000DE01119601900D928A95E1F716B3898149
:10172000882351F06AE070E080E090E0F6010995CE
:10173000EBA1FCA18981099560E170E080E090E077
:10174000F6010995812F90E0F501099590937E02AD
:1017500080937D0264E0F7010995892D90E08A303D
:10176000910508F0F9C2FC01EA5BFF4F0C94641389
:1017700060E070E080E090E0F6010995682D80E17E
:1017800091E0F7010995AB96EEADFFADAB97CE01B9
:101790008F5A9F4F099590E0F501099590937E022D
:1017A00080937D0263E0F70109958981813451F4CA
:1017B000C053DF4FE881F981C05DD0400995F30146
:1017C00009959CCF823459F4C053DF4FE881F981E9
:1017D000C05DD0400995F3010995992493948981BE
:1017E000833469F4C053DF4FE881F981C05DD04094
:1017F0000995F30109950F2EF6E09F2EF02D6B96BB
:10180000EEADFFAD6B97612FCE018F5A9F4F0995BB
:10181000A3C260E070E080E090E0F60109956CE022
:1018200089E191E0F701099560E070E081E090E0E6
:10183000F601099564E181E291E0F7010995689468
:10184000992491F889C267E070E080E090E0F601A9
:10185000099564E0CE010296F701099589818434E7
:1018600019F5CE010296C353DF4FE881F981CD5CB3
:10187000D04009958C01C153DF4F8883CF5CD040A5
:1018800060E070E082E090E0F6010995C8019927D8
:10189000F501099590937E0280937D02F1010995EF
:1018A000F301099593E001C0992D8981833409F0F2
:1018B0004CC2F301099550C267E070E080E090E00F
:1018C000F601099564E0CE010296F7010995898138
:1018D000843419F5CE010296C353DF4FE881F981B4
:1018E000CD5CD04009958C01CE52DF4F8883C25D1C
:1018F000D04065E070E082E090E0F6010995C80113
:101900009927F501099590937E0280937D02F1015C
:101910000995F301099594E001C0992D89818334DB
:1019200009F015C2F301099517C267E070E080E085
:1019300090E0F601099564E0CE010296F701099561
:101940008981843419F5CE010296C353DF4FE881B3
:10195000F981CD5CD04009958C01CD52DF4F888351
:10196000C35DD0406AE070E082E090E0F601099546
:10197000C8019927F501099590937E0280937D0215
:10198000F1010995F301099595E001C0992D89812F
:10199000833409F0DEC1F3010995DEC167E070E030
:1019A00080E090E0F601099564E0CE010296F7012F
:1019B00009958981843409F07DC0CE010296C35314
:1019C000DF4FE881F981CD5CD04009958C016FE053
:1019D00070E082E090E0F6010995C8019927F501D1
:1019E000099590937E0280937D02F10109956D9691
:1019F000EEADFFAD6D97CD52DF4F2881C35DD04076
:101A0000CE52DF4F4881C25DD040C153DF4F688165
:101A1000CF5CD040CE018F5A9F4F0995823019F18B
:101A200028F4882341F0813091F040C0833039F1AF
:101A3000843089F13BC06CE070E083E090E0F60117
:101A4000099567E085E391E0F70109952FC06CE007
:101A500070E083E090E0F601099567E08EE391E0A5
:101A6000F701099523C06CE070E083E090E0F60197
:101A7000099567E085E491E0F701099517C06CE0EE
:101A800070E083E090E0F601099567E085E491E07D
:101A9000F70109950BC06CE070E083E090E0F6017F
:101AA000099567E08CE491E0F7010995F301099548
:101AB00090E001C0992D8981833409F04CC1F30174
:101AC00009954AC160E070E081E090E0F601099577
:101AD0006AE081E591E0F701099560E070E082E05D
:101AE00090E0F601099561E18CE591E0F701099537
:101AF0000F2EF7E09F2EF02D2FC189818133D9F56C
:101B000060E070E081E090E0F60109958AE0F20182
:101B1000099560E070E082E090E0F601099581E1CE
:101B2000F2010995A396EEADFFADA397CE018F5AB2
:101B30009F4F0995AD96EEADFFADAD9760E0CE013C
:101B40008F5A9F4F0995A996EEADFFADA9976FEFFC
:101B5000CE018F5A9F4F0995F30109956CE070E013
:101B600083E090E0F601099567E08EE691E0F701E9
:101B70000995912CF1C08233B1F460E070E081E00E
:101B800090E0F60109958AE0F201099560E070E0C5
:101B900082E090E0F601099581E1F2010995F301F7
:101BA0000995982CD9C0833309F0D6C060E070E065
:101BB00081E090E0F60109958AE0F201099560E084
:101BC00070E082E090E0F601099581E1F20109956B
:101BD000F3010995912CC0C060E070E080E090E0D6
:101BE000F60109956CE089E191E0F701099560E063
:101BF00070E081E090E0F601099564E186E791E00C
:101C0000F70109950F2EF9E09F2EF02DA5C067E092
:101C100070E080E090E0F601099564E0CE01029664
:101C2000F70109958981843409F088C0CE010296B4
:101C3000C353DF4FE881F981CD5CD04009958C0119
:101C4000C153DF4F8883CF5CD04060E070E082E01A
:101C500090E0F6010995C8019927F501099590933F
:101C60007E0280937D02F1010995A196EEADFFAD54
:101C7000A197602FCE018F5A9F4F099590E08B322C
:101C8000910508F058C0FC01E05BFF4F0C94641311
:101C90006CE070E083E090E0F601099567E08CE786
:101CA00091E0F701099547C06CE070E083E090E0B7
:101CB000F601099567E085E891E0F70109953BC0D9
:101CC0006CE070E083E090E0F601099567E08FE852
:101CD00091E0F70109952FC06CE070E083E090E09F
:101CE000F601099567E08CE991E0F701099523C0B9
:101CF0006CE070E083E090E0F601099567E08CE924
:101D000091E0F701099517C06CE070E083E090E086
:101D1000F601099567E088EA91E0F70109950BC0A3
:101D20006CE070E083E090E0F601099567E084EBF9
:101D300091E0F7010995F3010995912C898183348C
:101D400059F4F3010995982C07C0992E05C0992ED6
:101D500003C0992E01C0992E60E070E083E090E00E
:101D6000F601099567E081EC91E0F7010995A596E8
:101D7000EEADFFADA597CE018F5A9F4F099590E02C
:101D8000F501099590937E0280937D0264E0F7014E
:101D90000995A596EEADFFADA597CE018F5A9F4F41
:101DA000099585BBABCCEF92FF920F931F93CF9316
:101DB000DF93DC011396EC90139712962C9122235B
:101DC000E9F08C01D0E0C0E0F12CCE9DB001CF9DB8
:101DD000700D1124D801ED91FC91008CF18DE02D56
:101DE000A70180EA92E009958091A0028111DF5F4E
:101DF000CF5FF8018281C81740F301C0D0E08D2F7A
:101E0000DF91CF911F910F91FF90EF900895BF92B6
:101E1000CF92DF92EF92FF920F931F93CF93DF93B6
:101E20008C01DC011396EC90139712968C91882309
:101E300061F1B12CC0E0F12CD1E0CE9D6001CF9DCD
:101E4000D00C1124D801ED91FC91008CF18DE02D86
:101E5000A701B60180EA92E009958091A00288234B
:101E600071F01092A002D801ED91FC91048CF58DD7
:101E7000E02DA701B60180EA92E00995BD2ECF5F63
:101E8000F8018281C817C8F201C0B12CD80116969A
:101E90001C92169717961C928B2DDF91CF911F9154
:101EA0000F91FF90EF90DF90CF90BF900895FC01CD
:101EB00086810895FC0187810895FC01668317825D
:101EC0000895FC0184810895FC01648308953F9284
:101ED0004F925F926F927F928F929F92AF92BF923A
:101EE000CF92DF92EF92FF920F931F93CF93DF93E6
:101EF0008C01D62EDC011596DC911597CD2EC626C9
:101F0000D61709F410C112968C911297882309F400
:101F100099C01396EC90139714967C90DC21C622FE
:101F200066246A9488248A9499249394C0E0F12CBE
:101F3000A72CB12C6894332432F80F2EF3E04F2EE7
:101F4000F02D6894552451F8CE9DB001CF9D700DB1
:101F50001124D801ED91FC91008CF18DE02DA701A9
:101F600080EA92E009958091A002882309F454C088
:101F7000813061F49091A2029D134EC09091A30212
:101F80009C114AC0F801C281952C46C0E0EAF2E0FB
:101F90002181D80116969C9116979227248192232D
:101FA000D9F59091A2029D1337C09091A3029C1184
:101FB00033C0282F30E02A193B0921F41296CC9126
:101FC000942C2AC0121613068CF4482D50E02417C6
:101FD000350764F497E0E0EAF2E0ADECB2E001909E
:101FE0000D929A95E1F7882E8718932C3323A4F449
:101FF000462D50E05195419551094217530764F41D
:1020000097E0E0EAF2E0A6ECB2E001900D929A953A
:10201000E1F7672C681A932CCF5FF8019281C917FA
:1020200008F492CFF2E09F1681F0F91520F081E0DC
:10203000981641F078C093E0991611F1A4E09A1631
:10204000B9F171C0F801D5826EC0D80114968C9395
:1020500014971596DC921597E0EAF2E034818681B8
:10206000832316962C911697822B95819323909516
:10207000892316968C93169782E017968C9353C0FB
:10208000F8018483D582E0EAF2E0348186818323FB
:10209000D80116962C911697822B958193239095B3
:1020A000892316968C93169783E017968C933BC0E2
:1020B000F801D5828FEF880D8E3FC8F4EDECF2E089
:1020C0008081D80114968C931497848126812823CB
:1020D00016969C911697292B9581892380958223AA
:1020E00016968C93169789E217968C931CC08FEFE7
:1020F000860D8E3FC0F4E6ECF2E08081D8011496A4
:102100008C93149784812681282316969C91169788
:10211000292B958189238095822316968C93169777
:102120008AE217968C93F8018781DF91CF911F91F6
:102130000F91FF90EF90DF90CF90BF90AF909F9066
:102140008F907F906F905F904F903F9008952F9267
:102150003F924F925F926F927F928F929F92AF9237
:10216000BF92CF92DF92EF92FF920F931F93CF9384
:10217000DF9300D000D000D0CDB7DEB7FC010381E3
:102180001092CD028580682C6626861609F4F0C070
:102190008281882309F4EEC06F0134808620662294
:1021A0004FEF498355245A94772473941D821C82DF
:1021B000212C412C10E0B02E1E83832D90E09B83B8
:1021C0008A83902EA12EEB2CFE80BD81B09FB001A2
:1021D000B19F700D1124D601ED91FC91008CF18D11
:1021E000E02D4B2D5F2D80EA92E009958091A002B1
:1021F000882309F456C0813081F48091A2028811AD
:1022000050C08091A30286114CC04D80F601F2812E
:10221000FD836894772471F844C0E0EAF2E02181FC
:10222000D60116969C911697922724819223C9F580
:102230009091A202981135C09091A302961131C0DD
:10224000282F30E0EA81FB812E1B3F0B49F44D80A3
:102250001296FC91FD830F2EF3E07F2EF02D21C00E
:10226000121613065CF4452D50E02417350734F49C
:10227000582E53182D806894772472F833238CF4E9
:102280009981492F50E051954195510942175307C3
:1022900044F4A32DA81BA983BD81BC836894772433
:1022A00072F8ED81EF5FED83D60112968C91E817FD
:1022B00008F487CFB3E07B16B9F0E4E07E1629F18D
:1022C000F2E07F1259C04E9CB0014F9C700D11245A
:1022D000D601ED91FC91048CF58DE02D492D5A2D00
:1022E0008DEC92E0099548C04E9CB0014F9C700D5A
:1022F0001124D601ED91FC91048CF58DE02D492D32
:102300005A2D8DEC92E0099537C08FEF850D8E3FE9
:10231000A8F42E9CB0012F9C700D1124D601ED91D4
:10232000FC91048CF58DE02D492D5A2D8DEC92E019
:1023300009950F2EF9E27F2EF02D1EC08981815064
:102340008E3FD0F4BC81BE9DB001BF9D700D1124A5
:10235000D601ED91FC91048CF58DE02D492D5A2D7F
:102360008DEC92E009950F2EFAE27F2EF02D04C03D
:10237000712C02C077247394872D26960FB6F8949B
:10238000DEBF0FBECDBFDF91CF911F910F91FF90A8
:10239000EF90DF90CF90BF90AF909F908F907F9005
:1023A0006F905F904F903F902F9008952F923F92A3
:1023B0004F925F926F927F928F929F92AF92BF9255
:1023C000CF92DF92EF92FF920F931F93CF93DF9301
:1023D000002309F493C0FC014580242C26264616D0
:1023E00009F48EC03281332309F48CC0602E522E42
:1023F000342EEC01C3804220262200E010E0D12CD4
:10240000AC2CBD2C772473948C2C9D2CEA2CFB2CAB
:102410001C9DB0011D9D700D1124E881F981008C77
:10242000F18DE02D4A2D5B2D80EA92E00995809197
:10243000A002882391F0813041F068120EC0909183
:10244000A1028E818927852141F48091A202841105
:1024500004C08091A302821531F01F5F072D8A818D
:10246000181790F203C0013009F04FC0EDECF2E014
:1024700060828E818183428223825482F1E0F6154C
:1024800050F4282F23255222EDECF2E0852185839C
:102490005320568208C0EDECF2E0832D8095852113
:1024A0008583532056828A81882371F110E01E9D16
:1024B00060011F9DD00C1124E881F981008CF18D01
:1024C000E02D482D592DB60180EA92E009958091C2
:1024D000A00281110DC0E881F981048CF58DE02DF9
:1024E000482D592DB6018DEC92E0099502E00DC002
:1024F0001F5F8A811817D8F203E007C000E005C00B
:1025000000E003C000E001C001E0802FDF91CF9127
:102510001F910F91FF90EF90DF90CF90BF90AF9001
:102520009F908F907F906F905F904F903F902F90F3
:102530000895FC0171836083428387E08383148262
:102540008FEF868387E69FE09187808786ED91E114
:102550009387828783ED9EE09587848787EA90E161
:102560009787868787E09FE0918B808B87E59FE048
:10257000938B828B8AE59FE0958B848B8DE59FE022
:10258000978B868B81E69FE0918F808F84E69FE01A
:10259000938F828FCF010895FC018BEA93E19183A1
:1025A000808386EF93E19383828389EC93E1958323
:1025B000848383EB93E1978386838BE094E1918717
:1025C000808786EE93E19387828783E094E1978703
:1025D000868783E094E1958B848B8AED93E1978BDA
:1025E000868B8BE993E1918F808F8CEE93E1938FB3
:1025F000828F89EB93E1958F848FCF010895DB0162
:102600008F939F930E947C13BF91AF91A29F800DE7
:10261000911DA39F900DB29F900D1124089597FBDB
:10262000072E16F4009407D077FD09D00E94871377
:1026300007FC05D03EF4909581959F4F08957095C5
:1026400061957F4F0895A1E21A2EAA1BBB1BFD01C5
:102650000DC0AA1FBB1FEE1FFF1FA217B307E40781
:10266000F50720F0A21BB30BE40BF50B661F771FD9
:10267000881F991F1A9469F76095709580959095B9
:102680009B01AC01BD01CF010895052E97FB1EF4FF
:1026900000940E945C1357FD07D00E94231307FC8F
:1026A00003D04EF40C945C135095409530952195D1
:1026B0003F4F4F4F5F4F089590958095709561956E
:1026C0007F4F8F4F9F4F0895EE0FFF1F0024001C78
:1026D0000BBE0790F691E02D0994A29FB001B39F25
:1026E000C001A39F700D811D1124911DB29F700D1B
:1026F000811D1124911D08950E946D13A59F900DB9
:10270000B49F900DA49F800D911D11240895AA1BC4
:10271000BB1B51E107C0AA1FBB1FA617B70710F0CC
:10272000A61BB70B881F991F5A95A9F780959095FE
:10273000BC01CD010895DC01CB01FC01E199FECF84
:1027400006C0FFBBEEBBE09A31960DB20D92415030
:102750005040B8F70895E199FECF9FBB8EBBE09A39
:1027600099278DB30895A8E1B0E042E050E00C94C1
:102770009D13DC01A40FB51F4150504048F0CB0120
:10278000840F951F2E910E94CA1341505040D0F7DC
:102790000895262FE199FECF9FBB8EBBE09A01974B
:1027A0000DB2021631F02DBB0FB6F894E29AE19A01
:1027B0000FBE08950396272F0E94CA130E94C913C3
:1027C000252F0E94CA13242F0C94CA130196272F79
:1027D0000E94CA130C94C913DC01CB0103C02D91D4
:1027E0000E94F71341505040D0F70895262FE199E9
:1027F000FECF9FBB8EBB2DBB0FB6F894E29AE19A39
:102800000FBE01960895242F0E94F713252F0E94D2
:10281000F7130C940B140E94F613272F0C94F71344
:04282000F894FFCF5A
:102824003132334134353642373839432A30234440
:1028340052756E6E696E672000456E7465723A203B
:1028440000496E2020204F757420204D61736B2049
:10285400506167650064697361626C6564006578E2
:10286400697374730075706C6F61640066756C6C69
:102874000044656C657465202D20310052656D6FD0
:102884007665202D2032204E6F202D203300646584
:102894006C6574656400496E707574004E6F2065D4
:1028A4006E747279004E657720456E747279006794
:1028B4006C6F62616C206C6F676963006C6F63613D
:1028C4006C206C6F676963006C6F63616C2061627C
:1028D4006F7665006C6F63616C2062656C6C6F77FA
:0A28E400004F757470757420000039
:00000001FF
