:100000000C9446000C9465000C9465000C946500FB
:100010000C9465000C9465000C9465000C946500CC
:100020000C9465000C9465000C9465000C946500BC
:100030000C9465000C9465000C9465000C946500AC
:100040000C9465000C9465000C94EC000C94240155
:100050000C9465000C9467000C9465000C9465008A
:100060000C9465000C9465000C9465000C9465007C
:100070000C9465000C9465000C944D010C9488015F
:100080000C9465000C9465000C94650011241FBE4F
:10009000CFEFD0E1DEBFCDBF11E0A0E0B1E0E4E6FC
:1000A000F4E100E00BBF02C007900D92AC30B10745
:1000B000D9F721E0ACE0B1E001C01D92AD3DB2073F
:1000C000E1F70E9468040C94300A0C9400001F921F
:1000D0000F920FB60F9211240BB60F922F933F93EE
:1000E0008F939F93EF93FF9384B190E09093980147
:1000F0008093970125B18091970190919801922B5F
:100100009093980180939701809196018430A0F498
:10011000809196018F5F8093960120919701309195
:1001200098018091990190919A01820F931F909369
:100130009A018093990143C0E0919B01F0919C0149
:100140008091990190919A019595879595958795BC
:10015000EE0FFF1FE155FE4F9183808310929A01AD
:10016000109299011092960120919B0130919C016F
:1001700080919D0190919E012817390754F4809138
:100180009B0190919C01019690939C0180939B010F
:1001900004C010929C0110929B0187B1807E87B9A8
:1001A000E0919B01F0919C01EE0FFF1FE156FE4F85
:1001B0008081918127B18F719927822B87B9FF9117
:1001C000EF919F918F913F912F910F900BBE0F90C8
:1001D0000FBE0F901F9018951F920F920FB60F929F
:1001E00011240BB60F928F939F93EF93FF938BB1D4
:1001F0009AB1887180935101E0915301EF5FEF71E3
:1002000080915201E81304C082E08093510111C033
:100210009CB1E093530180915101882331F0F0E0CB
:10022000EA5AFE4F88E5808304C0F0E0EA5AFE4FA8
:100230009083FF91EF919F918F910F900BBE0F9044
:100240000FBE0F901F9018951F920F920FB60F922E
:1002500011240BB60F928F939F93EF93FF9390917E
:10026000550180915401981302C055980BC0E0913C
:100270005401EF5FEF71E0935401F0E0EA58FE4F54
:1002800080818CB9FF91EF919F918F910F900BBE60
:100290000F900FBE0F901F9018951F920F920FB6E0
:1002A0000F9211240BB60F928F939F93EF93FF93AE
:1002B00080919B0090919A00887180930C01E0914D
:1002C0000E01EF5FEF7180910D01E81304C082E031
:1002D00080930C0112C090919C00E0930E018091DC
:1002E0000C01882331F0F0E0EF5EFE4F88E580835B
:1002F00004C0F0E0EF5EFE4F9083FF91EF919F917D
:100300008F910F900BBE0F900FBE0F901F901895FE
:100310001F920F920FB60F9211240BB60F928F936C
:100320009F93EF93FF939091100180910F01981389
:1003300006C0EAE9F0E080818F7D80830EC0809165
:100340000F018F5F8F7180930F01E0910F01F0E03B
:10035000EF5CFE4F808180939C00FF91EF919F9115
:100360008F910F900BBE0F900FBE0F901F9018959E
:10037000E091C901F091CA0190819D7F9083672B24
:1003800041F0E091C901F091CA01908191609083A0
:1003900007C0E091C901F091CA0190819E7F9083CE
:1003A000E091C601F091C7019081906F9083E09138
:1003B000C901F091CA01908194609083882344F42C
:1003C000E091C901F091CA0190819068908307C0C3
:1003D000E091C901F091CA0190819F77908386FFD7
:1003E00008C0E091C901F091CA01908190649083A6
:1003F00007C0E091C901F091CA0190819F7B908371
:1004000085FF08C0E091C901F091CA019081906216
:10041000908307C0E091C901F091CA0190819F7D4E
:10042000908384FF08C0E091C901F091CA019081D6
:100430009061908307C0E091C901F091CA01908159
:100440009F7E9083E091C901F091CA0190819B7FCA
:100450009083E091C901F091CA01908194609083EA
:1004600083FF08C0E091C901F091CA0190819068B2
:10047000908307C0E091C901F091CA0190819F77F4
:10048000908382FF08C0E091C901F091CA01908178
:100490009064908307C0E091C901F091CA019081F6
:1004A0009F7B908381FF08C0E091C901F091CA0150
:1004B00090819062908307C0E091C901F091CA01D8
:1004C00090819F7D908380FF08C0E091C901F091E9
:1004D000CA0180818061808307C0E091C901F091E9
:1004E000CA0180818F7E8083E091C901F091CA01A9
:1004F00080818B7F80830895E091C601F091C701D0
:1005000020812F702083E091C901F091CA012081E0
:10051000206F2083E091C901F091CA0120812260FF
:100520002083892B41F0E091C901F091CA018081BB
:100530008160808307C0E091C901F091CA01808188
:100540008E7F8083E091C901F091CA01808184602F
:100550008083E091BF01F091C0018081882314F075
:1005600080E001C080E8908196FF02C0806401C0F5
:100570008F7B908195FF02C0806201C08F7D90814A
:1005800094FF02C0806101C08F7EE091C901F091AB
:10059000CA0190819B7F9083E091C901F091CA01CB
:1005A000908194609083E091BF01F091C0019081AF
:1005B000992314F4886001C0877F908196FF02C060
:1005C000846001C08B7F908195FF02C0826001C072
:1005D0008D7F908194FF02C0816001C08E7FE09189
:1005E000C901F091CA0190819B7F90830895CF93B8
:1005F000DF9380E090E00E947C02CBE0D0E006C078
:1006000080E090E00E947C02219711F08823C4F3DF
:10061000DF91CF91089561E070E00E94B8010E94DF
:10062000F7020895CF9381E090E00E947C02C82FEA
:100630000E94F7028C2FCF910895CF93DF93EC01A6
:100640008881882351F0219661E070E00E94B80112
:100650000E94F70289918111F7CFDF91CF91089520
:100660000F931F93CF93DF93FC01D62F80818823B4
:1006700051F08F010F5F1F4F611109C01FC0CF5F85
:10068000DC1730F401C0C0E0CD1770F017C0C1E036
:1006900061E070E00E94B8010E94F702F8018191C8
:1006A0008F018111ECCFF0CFCF5F61E070E080E28D
:1006B0000E94B8010E94F702CD17B0F3DF91CF91ED
:1006C0001F910F910895CF93C82F882349F061E0BF
:1006D00070E080E20E94B8010E94F702C150B9F7B1
:1006E000CF91089560E070E081E00E94B8010E941F
:1006F000F7020895262F8130910581F030F0823085
:100700009105A9F00397E1F0089560E070E080E8BA
:10071000820F0E94B8010E94F702089560E070E025
:1007200080EC820F0E94B8010E94F702089560E0F9
:1007300070E084E9820F0E94B8010E94F7020895D8
:1007400060E070E084ED820F0E94B8010E94F70221
:100750000895E091C601F091C70187E08083E091A0
:10076000C901F091CA0188E080832FEF83EF91E007
:10077000215080409040E1F700C0000060E070E050
:1007800083E30E94B80120ED2A95F1F760E070E064
:1007900083E30E94B80180ED8A95F1F760E070E094
:1007A0008BE20E94B80195EC9A95F1F7000060E0A9
:1007B00070E08CE00E94B80125EC2A95F1F700006A
:1007C00060E070E081E00E94B80187EE97E1019758
:1007D000F1F700C0000060E070E086E00E94B80120
:1007E00095EC9A95F1F7000008951F93CF93DF934E
:1007F000EC011FB78FB78F778FBF7093C7016093DE
:10080000C6015093C0014093BF013093CA012093A9
:10081000C901FB011082E091C901F091CA018FEF7B
:100820008083E091BF01F091C00180818870809346
:10083000C8010E94A9031FBF88EB91E099838883B8
:100840008CE792E09B838A8387EF92E09D838C8381
:100850008BE093E09F838E8382E193E09987888782
:100860008DE193E09B878A8780E393E09D878C8767
:1008700083E693E09F878E8782E793E0998B888B4E
:100880008AE793E09B8B8A8B8DE494E09D8B8C8B25
:10089000CE01DF91CF911F910895CF93E091BF01D9
:1008A000F091C001C081C8708091C8018C278C2351
:1008B00011F00E94A903C093C801CF91089517BAFF
:1008C0008FEF88BB84BB15BA8FB780688FBF089540
:1008D000CF93DF93CDB7DEB7C057D1090FB6F894E9
:1008E000DEBF0FBECDBF06B383B30E945F042BE310
:1008F00030E049E350E06AE370E0CE0141960E94A7
:10090000F503AD8CBE8CCBA0DCA0CE0187960E94F7
:10091000F608EFA8F8AC01C0012FEDA1FEA10995E2
:1009200016B383B364E070E080E090E0F6010995CF
:1009300067E080E091E0F501099562E070E081E018
:1009400090E0F601099563E088E091E0F5010995F2
:10095000011771F02B968EAC9FAC2B97612F802FD7
:10096000F7010995BE016F5F7F4F90E0F401099593
:1009700060E070E082E090E0F601099564E0CE016D
:100980000196F5010995612F802FF70109958130B6
:1009900019F485B38F5F85BB612F802FF70109950F
:1009A000823019F485B3815085BB612F802FF70108
:1009B0000995843009F0B0CFE989FA8960E070E0E8
:1009C0008FE10995ED89FE890995A6CF6823442317
:1009D00021F0861721F080E00895611180E00895EC
:1009E000862B08958623089586230895862B809567
:1009F000089586278623089560958623089586277F
:100A00000895CF92DF92EF92FF920F931F93FC0114
:100A10000081118122813381FB01C080D180E2807D
:100A2000F380FC01C082D182E282F382FB01008369
:100A30001183228333831F910F91FF90EF90DF90FA
:100A4000CF900895FB012081FC012083222339F0FF
:100A5000DB01119631969D9191939111FCCF0895F0
:100A6000CF93DF93EC019881992399F0FE013196A1
:100A700020E030E0492F50E04617570731F0DE0103
:100A8000A20FB31F9C932F5F3F4F91919111F2CF13
:100A900002C020E030E0FE01E20FF31F1082DF9180
:100AA000CF9108952F923F924F925F926F927F92D3
:100AB0008F929F92AF92BF92CF92DF92EF92FF926E
:100AC0000F931F93CF93DF9300D000D0CDB7DEB745
:100AD0002C011B014B0177231CF42FEF821A920A81
:100AE00095948794181419040CF451C06AC09601A7
:100AF000DD209CF1F50140815181F401608171811B
:100B00006417750754F58C010A0D1B1DD401BC82B6
:100B1000AB82BA82A982EB81FC81718360831196DA
:100B20005C934E932E193F09C2F0F8014081518128
:100B3000E981FA8160817181080F191FE80FF91F9F
:100B4000FA83E983EB81FC81E80FF91FFC83EB83D7
:100B5000A80FB91F64177507F4F2FFEFCF1ADF0A69
:100B600022E0A20EB11CE2E08E0E911CC614D70446
:100B700009F0BDCF4701FF201CF4FFEF8F1A9F0A39
:100B80009594879418141904E4F4740101C0740155
:100B9000821493047CF76401CE18DF085601AA0C76
:100BA000BB1CA40CB51C880C991C840C951C310131
:100BB0006E187F08C701880F991F9195819591093B
:100BC00096CF0F900F900F900F90DF91CF911F91C4
:100BD0000F91FF90EF90DF90CF90BF90AF909F90DC
:100BE0008F907F906F905F904F903F902F900895DF
:100BF000861797070CF4CB0108959B01672B11F41E
:100C000008959A01B9010E94AD09AC01822F932F7A
:100C100041155105B1F70895FC01908180ED890FD0
:100C20008A30D0F4319620E030E0A901440F551FFE
:100C3000220F331F220F331F220F331F420F531F68
:100C4000292F30E020533109240F351F919180ED79
:100C5000890F8A3050F302C020E030E0C9010895C6
:100C600086230895009739F020E030E02F5F3F4F52
:100C700082179307D9F7089587FF08C0919581954A
:100C80009109992791958195910908958F779927D1
:100C9000089591FF08C09195819591099370919560
:100CA00081959109089591700895615021E030E097
:100CB00002C0220F331F6A95E2F7A9014150510982
:100CC000B90168237923672B29F084239523821B9C
:100CD000930B08958423952308959DEC899F912D6E
:100CE0001124969596959695392F330F232F220F21
:100CF000220F230F821B20E1929F800D1124089563
:100D0000982F92959F70990F292F220F220F920FE3
:100D10008F70890F0895FC01DB01A353BE4F1C9215
:100D20001616170614F5908191110CC017C09191F9
:100D300091110DC015C081932F5F3F4F26173707C4
:100D4000D4F313C0ADECB1E0319620E030E09D93D8
:100D50002F5F3F4F6217730751F707C020E030E065
:100D6000F901E353FE4F80E2E6CF8DEC91E0089568
:100D70004F925F926F927F92AF92BF92CF92DF922B
:100D8000EF92FF920F931F93CF93DF93CDB7DEB710
:100D900029013A019B01AC0124193509460957097B
:100DA00089899A89AB89BC89BC01CD016A197B0903
:100DB0008C099D090E949D09A801970124193509F4
:100DC000460957090E94E309CA01B9016A0D7B1D52
:100DD0008C1D9D1DDF91CF911F910F91FF90EF9082
:100DE000DF90CF90BF90AF907F906F905F904F90CB
:100DF000089570E06115710599F041E050E021E03F
:100E000030E090E0FA01E89FA001E99F500DF89FC3
:100E1000500D11242F5F3F4F6217730798F702C0E0
:100E200041E050E0CA010895FC012081222341F0F5
:100E3000319680E090E0019621912111FCCF089538
:100E400080E090E00895CF93DF93EC010E941407B7
:100E50009C012150310962F0FE01E80FF91F9291C7
:100E6000903219F09950923018F421503109B8F7A6
:100E7000C20FD31F1982C901DF91CF910895CF937B
:100E8000DF93EC010E9414079C01215031091216D6
:100E9000130684F4DE01A80FB91FFE0180E090E084
:100EA00040815E9151934C930196215031098217F4
:100EB0009307B4F3DF91CF9108956F927F928F9251
:100EC0009F92AF92BF92CF92DF92EF92FF920F93D9
:100ED0001F93CF93DF936B017C01EA01DC01CB010F
:100EE000FF203CF488279927DC018C199D09AE0965
:100EF000BF09BC01CD01712C0F2EFAE08F2E912C71
:100F0000A12CB12CF02D01C0762C66246394670CC3
:100F10008E01070D111DA50194010E94E309605D7A
:100F2000F8016083622F732F842F952F16161706F2
:100F3000180619064CF3FF204CF4FE01E60DF11DD6
:100F40008DE280836894662461F8670CFE01E60DEB
:100F5000F11D1082CE010E943F07DF91CF911F91BA
:100F60000F91FF90EF90DF90CF90BF90AF909F9048
:100F70008F907F906F900895EF92FF920F931F9341
:100F8000CF93DF938C01EB01992324F488279927D1
:100F9000801B910B20E00F2EFAE0EF2EF12CF02DAC
:100FA00001C0232F31E0320FFE01E20FF11DB70126
:100FB0000E94AD09805D8083862F972F1816190631
:100FC00084F311233CF4FE01E30FF11D8DE28083D5
:100FD00032E0320FFE01E30FF11D1082CE010E94BC
:100FE0003F07DF91CF911F910F91FF90EF900895F0
:100FF0001F93CF93DF93AC01FB0180E011E0180F4A
:10100000EF01C80FD11D9A01ADECBCEC0E94020AA1
:101010009695879596958795969587959C01220F2D
:10102000331F880F991F880F991F880F991F820FF0
:10103000931F9A01281B390BC901805D88839A018F
:101040000E94020AAC0156954795569547955695CC
:101050004795812F4115510589F6DF01A10FB11D7B
:101060001C92CF010E943F07DF91CF911F910895FD
:10107000982F92959F70990F292F220F220F920F70
:101080008F70890F0895AC019C01ADECBCEC0E94FF
:10109000020A969587959695879596958795BC01B2
:1010A000660F771F9C01220F331F220F331F220F61
:1010B000331F260F371F421B530B342F20E1829F13
:1010C000300D1124832F0895CF92DF92EF92FF927B
:1010D000CF93DF93CDB7DEB728970FB6F894DEBF76
:1010E0000FBECDBF6B017C0169837A838B839C83A8
:1010F0002D833E834F835887C216D306E406F50638
:101100003CF4BE016B5F7F4FCE0101960E9401054A
:101110008D819E81AF81B885892B8A2B8B2B71F4B1
:1011200069817A818B819C8120E030E0A9010E9455
:10113000E309611571058105910529F46D817E81B1
:101140008F81988505C06D837E838F839887F6CFC6
:1011500028960FB6F894DEBF0FBECDBFDF91CF91BA
:10116000FF90EF90DF90CF90089590E002C09595AA
:1011700087956A95E2F781700895EDECF1E090E0D3
:1011800020E850E341E3382F322311F0408301C0BF
:10119000508326959F5F31969830A9F71092D5011C
:1011A0008DEC91E00895A42FB0E0109761F021E05C
:1011B00030E0E1E0F0E0EE0FFF1F2F5F3F4FA2179E
:1011C000B307C8F702C0E1E0F0E031976E237F2358
:1011D0008E239F23862797276823792302C0660FD3
:1011E000771F4A95E2F7862B972B0895FC019FB74E
:1011F0008FB78F778FBF9FBF89EF96E091838083F2
:1012000084E197E0938382838FE397E095838483DF
:1012100083ED98E09783868386EE94E091878087BC
:1012200084EF94E09387828786EF94E095878487A4
:1012300089EF94E0978786878CEF94E0918B808B81
:101240008FEF94E0938B828B80EF94E0958B848B6F
:1012500082EF94E0978B868B81E095E0918F808F71
:1012600082E295E0938F828F80E395E0958F848F63
:1012700082E595E0978F868F8CEB97E091A380A312
:1012800088EF97E093A382A38DE597E095A384A3CD
:1012900083E297E097A386A388EF95E091A780A7C4
:1012A0008DEF95E093A782A78CE096E095A784A7A1
:1012B00080E396E097A786A782E396E091AB80ABA8
:1012C0008CE396E093AB82AB89E496E095AB84AB7C
:1012D00085E596E097AB86AB8DE696E091AF80AF63
:1012E00080E896E093AF82AF8BE896E095AF84AF4D
:1012F00088EB96E097AF86AFDF01A05CBF4F88E335
:1013000098E011969C938E93129683E498E0119640
:101310009C938E93129684E698E011969C938E93FC
:10132000129685EB98E011969C938E9312968DEB16
:1013300098E08D939C93CF010895DB018F939F9349
:101340000E94110ABF91AF91A29F800D911DA39F92
:10135000900DB29F900D1124089597FB072E16F45F
:10136000009407D077FD09D00E941C0A07FC05D025
:101370003EF4909581959F4F0895709561957F4FAC
:101380000895A1E21A2EAA1BBB1BFD010DC0AA1FC6
:10139000BB1FEE1FFF1FA217B307E407F50720F0DE
:1013A000A21BB30BE40BF50B661F771F881F991F59
:1013B0001A9469F760957095809590959B01AC01A2
:1013C000BD01CF010895052E97FB1EF400940E94E5
:1013D000FA0957FD07D00E94C10907FC03D04EF45B
:1013E0000C94FA0950954095309521953F4F4F4FF9
:1013F0005F4F089590958095709561957F4F8F4FC1
:101400009F4F0895A29FB001B39FC001A39F700D8D
:10141000811D1124911DB29F700D811D1124911DFC
:1014200008950E94020AA59F900DB49F900DA49F5D
:10143000800D911D11240895AA1BBB1B51E107C00B
:10144000AA1FBB1FA617B70710F0A61BB70B881F54
:10145000991F5A95A9F780959095BC01CD010895E3
:04146000F894FFCF2E
:0C146400426F6F742075700052756E00AE
:00000001FF
