:100000000C9446000C9465000C9465000C946500FB
:100010000C9465000C9465000C9465000C946500CC
:100020000C9465000C9465000C9465000C946500BC
:100030000C9465000C9465000C9465000C946500AC
:100040000C9465000C9465000C94EC000C94240155
:100050000C9465000C9467000C9465000C9465008A
:100060000C9465000C9465000C9465000C9465007C
:100070000C9465000C9465000C944D010C9488015F
:100080000C9465000C9465000C94650011241FBE4F
:10009000CFEFD0E1DEBFCDBF11E0A0E0B1E0ECE3F7
:1000A000F9E000E00BBF02C007900D92AC30B10741
:1000B000D9F721E0ACE0B1E001C01D92AD3CB20740
:1000C000E1F70E9468040C949C040C9400001F92B9
:1000D0000F920FB60F9211240BB60F922F933F93EE
:1000E0008F939F93EF93FF9384B190E09093980147
:1000F0008093970125B18091970190919801922B5F
:100100009093980180939701809196018430A0F498
:10011000809196018F5F8093960120919701309195
:1001200098018091990190919A01820F931F909369
:100130009A018093990143C0E0919B01F0919C0149
:100140008091990190919A019595879595958795BC
:10015000EE0FFF1FE155FE4F9183808310929A01AD
:10016000109299011092960120919B0130919C016F
:1001700080919D0190919E012817390754F4809138
:100180009B0190919C01019690939C0180939B010F
:1001900004C010929C0110929B0187B1807E87B9A8
:1001A000E0919B01F0919C01EE0FFF1FE156FE4F85
:1001B0008081918127B18F719927822B87B9FF9117
:1001C000EF919F918F913F912F910F900BBE0F90C8
:1001D0000FBE0F901F9018951F920F920FB60F929F
:1001E00011240BB60F928F939F93EF93FF938BB1D4
:1001F0009AB1887180935101E0915301EF5FEF71E3
:1002000080915201E81304C082E08093510111C033
:100210009CB1E093530180915101882331F0F0E0CB
:10022000EA5AFE4F88E5808304C0F0E0EA5AFE4FA8
:100230009083FF91EF919F918F910F900BBE0F9044
:100240000FBE0F901F9018951F920F920FB60F922E
:1002500011240BB60F928F939F93EF93FF9390917E
:10026000550180915401981302C055980BC0E0913C
:100270005401EF5FEF71E0935401F0E0EA58FE4F54
:1002800080818CB9FF91EF919F918F910F900BBE60
:100290000F900FBE0F901F9018951F920F920FB6E0
:1002A0000F9211240BB60F928F939F93EF93FF93AE
:1002B00080919B0090919A00887180930C01E0914D
:1002C0000E01EF5FEF7180910D01E81304C082E031
:1002D00080930C0112C090919C00E0930E018091DC
:1002E0000C01882331F0F0E0EF5EFE4F88E580835B
:1002F00004C0F0E0EF5EFE4F9083FF91EF919F917D
:100300008F910F900BBE0F900FBE0F901F901895FE
:100310001F920F920FB60F9211240BB60F928F936C
:100320009F93EF93FF939091100180910F01981389
:1003300006C0EAE9F0E080818F7D80830EC0809165
:100340000F018F5F8F7180930F01E0910F01F0E03B
:10035000EF5CFE4F808180939C00FF91EF919F9115
:100360008F910F900BBE0F900FBE0F901F9018959E
:10037000E091C901F091CA0190819D7F9083672B24
:1003800041F0E091C901F091CA01908191609083A0
:1003900007C0E091C901F091CA0190819E7F9083CE
:1003A000E091C601F091C7019081906F9083E09138
:1003B000C901F091CA01908194609083882344F42C
:1003C000E091C901F091CA0190819068908307C0C3
:1003D000E091C901F091CA0190819F77908386FFD7
:1003E00008C0E091C901F091CA01908190649083A6
:1003F00007C0E091C901F091CA0190819F7B908371
:1004000085FF08C0E091C901F091CA019081906216
:10041000908307C0E091C901F091CA0190819F7D4E
:10042000908384FF08C0E091C901F091CA019081D6
:100430009061908307C0E091C901F091CA01908159
:100440009F7E9083E091C901F091CA0190819B7FCA
:100450009083E091C901F091CA01908194609083EA
:1004600083FF08C0E091C901F091CA0190819068B2
:10047000908307C0E091C901F091CA0190819F77F4
:10048000908382FF08C0E091C901F091CA01908178
:100490009064908307C0E091C901F091CA019081F6
:1004A0009F7B908381FF08C0E091C901F091CA0150
:1004B00090819062908307C0E091C901F091CA01D8
:1004C00090819F7D908380FF08C0E091C901F091E9
:1004D000CA0180818061808307C0E091C901F091E9
:1004E000CA0180818F7E8083E091C901F091CA01A9
:1004F00080818B7F80830895E091C601F091C701D0
:1005000020812F702083E091C901F091CA012081E0
:10051000206F2083E091C901F091CA0120812260FF
:100520002083892B41F0E091C901F091CA018081BB
:100530008160808307C0E091C901F091CA01808188
:100540008E7F8083E091C901F091CA01808184602F
:100550008083E091BF01F091C0018081882314F075
:1005600080E001C080E8908196FF02C0806401C0F5
:100570008F7B908195FF02C0806201C08F7D90814A
:1005800094FF02C0806101C08F7EE091C901F091AB
:10059000CA0190819B7F9083E091C901F091CA01CB
:1005A000908194609083E091BF01F091C0019081AF
:1005B000992314F4886001C0877F908196FF02C060
:1005C000846001C08B7F908195FF02C0826001C072
:1005D0008D7F908194FF02C0816001C08E7FE09189
:1005E000C901F091CA0190819B7F90830895CF93B8
:1005F000DF9380E090E00E947C02CBE0D0E006C078
:1006000080E090E00E947C02219711F08823C4F3DF
:10061000DF91CF91089561E070E00E94B8010E94DF
:10062000F7020895CF9381E090E00E947C02C82FEA
:100630000E94F7028C2FCF910895CF93DF93EC01A6
:100640008881882351F0219661E070E00E94B80112
:100650000E94F70289918111F7CFDF91CF91089520
:100660000F931F93CF93DF93FC01D62F80818823B4
:1006700051F08F010F5F1F4F611109C01FC0CF5F85
:10068000DC1730F401C0C0E0CD1770F017C0C1E036
:1006900061E070E00E94B8010E94F702F8018191C8
:1006A0008F018111ECCFF0CFCF5F61E070E080E28D
:1006B0000E94B8010E94F702CD17B0F3DF91CF91ED
:1006C0001F910F910895CF93C82F882349F061E0BF
:1006D00070E080E20E94B8010E94F702C150B9F7B1
:1006E000CF91089560E070E081E00E94B8010E941F
:1006F000F7020895262F8130910581F030F0823085
:100700009105A9F00397E1F0089560E070E080E8BA
:10071000820F0E94B8010E94F702089560E070E025
:1007200080EC820F0E94B8010E94F702089560E0F9
:1007300070E084E9820F0E94B8010E94F7020895D8
:1007400060E070E084ED820F0E94B8010E94F70221
:100750000895E091C601F091C70187E08083E091A0
:10076000C901F091CA0188E080832FEF83EF91E007
:10077000215080409040E1F700C0000060E070E050
:1007800083E30E94B80120ED2A95F1F760E070E064
:1007900083E30E94B80180ED8A95F1F760E070E094
:1007A0008BE20E94B80195EC9A95F1F7000060E0A9
:1007B00070E08CE00E94B80125EC2A95F1F700006A
:1007C00060E070E081E00E94B80187EE97E1019758
:1007D000F1F700C0000060E070E086E00E94B80120
:1007E00095EC9A95F1F7000008951F93CF93DF934E
:1007F000EC011FB78FB78F778FBF7093C7016093DE
:10080000C6015093C0014093BF013093CA012093A9
:10081000C901FB011082E091C901F091CA018FEF7B
:100820008083E091BF01F091C00180818870809346
:10083000C8010E94A9031FBF88EB91E099838883B8
:100840008CE792E09B838A8387EF92E09D838C8381
:100850008BE093E09F838E8382E193E09987888782
:100860008DE193E09B878A8780E393E09D878C8767
:1008700083E693E09F878E8782E793E0998B888B4E
:100880008AE793E09B8B8A8B8DE494E09D8B8C8B25
:10089000CE01DF91CF911F910895CF93E091BF01D9
:1008A000F091C001C081C8708091C8018C278C2351
:1008B00011F00E94A903C093C801CF91089517BAFF
:1008C0008FEF88BB84BB15BA8FB780688FBF089540
:1008D000CF93DF93CDB7DEB766970FB6F894DEBF40
:1008E0000FBECDBF0E945F042BE330E049E350E030
:1008F0006AE370E0CE0101960E94F503ED84FE8468
:100900000B891C89ED89FE89099564E070E080E01F
:1009100090E0F801099567E080E091E0F701099522
:1009200062E070E081E090E0F801099563E088E022
:0C09300091E0F7010995E6CFF894FFCFA5
:0C093C00426F6F742075700052756E00E1
:00000001FF
