:100000000C9446000C9465000C9465000C946500FB
:100010000C9465000C9465000C9465000C946500CC
:100020000C9465000C9465000C9465000C946500BC
:100030000C9465000C9465000C9465000C946500AC
:100040000C94430C0C9465000C9491010C94C90120
:100050000C9465000C94CA000C9465000C94650027
:100060000C9465000C9465000C9465000C9465007C
:100070000C9465000C9465000C94F2010C942D0214
:100080000C9465000C9465000C94650011241FBE4F
:10009000CFEFD0E1DEBFCDBF11E0A0E0B1E0ECEDED
:1000A000F9E100E00BBF02C007900D92AC31B1073F
:1000B000D9F722E0ACE1B1E001C01D92AD35B20745
:1000C000E1F70E947B0B0C94EC0C0C940000209147
:1000D0001802211140C02FEF21BF23B7287F23BF73
:1000E0008034910511F148F488309105B1F08032E7
:1000F0009105B9F0019749F50CC0811521E09207EF
:10010000E1F0811524E09207E1F080389105E9F4EF
:1001100010C083B7816083BF1BC083B7826083BF79
:1001200017C083B7836083BF13C083B7846083BF66
:100130000FC083B7856083BF0BC083B7866083BF62
:1001400007C083B7876083BF03C083B7876083BF5F
:1001500081E080931802089593B79F7C93BF82300B
:1001600041F0833051F0813059F483B7806183BF0F
:10017000089583B7806283BF089583B7806383BF88
:10018000089581BF089583B7887F83BF12BE109200
:10019000180208951F920F920FB60F9211240BB6FA
:1001A0000F922F933F938F939F93EF93FF9384B17D
:1001B00090E09093A8018093A70125B18091A701B9
:1001C0009091A801922B9093A8018093A701809110
:1001D000A6018430A0F48091A6018F5F8093A601D0
:1001E0002091A7013091A8018091A9019091AA01C5
:1001F000820F931F9093AA018093A90143C0E091BD
:10020000AB01F091AC018091A9019091AA01959563
:10021000879595958795EE0FFF1FE154FE4F9183CB
:1002200080831092AA011092A9011092A601209138
:10023000AB013091AC018091AD019091AE012817D6
:10024000390754F48091AB019091AC0101969093E1
:10025000AC018093AB0104C01092AC011092AB01D1
:1002600087B1807E87B9E091AB01F091AC01EE0FD0
:10027000FF1FE155FE4F8081918127B18F71992732
:10028000822B87B9FF91EF919F918F913F912F9191
:100290000F900BBE0F900FBE0F901F9018951092ED
:1002A000180223B7277B23BF623041F0633051F03F
:1002B000613059F423B7206423BF07C023B72860F7
:1002C00023BF03C023B7286423BF27B72E7F27BFD0
:1002D00027B72D7F27BF423041F0433051F04130E6
:1002E00071F427B7216027BF0AC027B7226027BF54
:1002F00006C027B7216027BF27B7226027BF2CEA97
:1003000030E0FC013183208321EC30E03783268309
:1003100027E630E03587248723EC30E037872687CF
:1003200008951F920F920FB60F9211240BB60F92E1
:100330008F939F93EF93FF938BB19AB188718093C2
:100340006101E0916301EF5FEF7180916201E81359
:1003500004C082E08093610111C09CB1E09363010D
:1003600080916101882331F0F0E0EA59FE4F88E581
:10037000808304C0F0E0EA59FE4F9083FF91EF9133
:100380009F918F910F900BBE0F900FBE0F901F90FB
:1003900018951F920F920FB60F9211240BB60F9261
:1003A0008F939F93EF93FF939091650180916401E8
:1003B000981302C055980BC0E0916401EF5FEF7194
:1003C000E0936401F0E0EA57FE4F80818CB9FF9121
:1003D000EF919F918F910F900BBE0F900FBE0F90DA
:1003E0001F9018951F920F920FB60F9211240BB603
:1003F0000F928F939F93EF93FF9380919B00909127
:100400009A00887180931C01E0911E01EF5FEF71EB
:1004100080911D01E81304C082E080931C0112C08A
:1004200090919C00E0931E0180911C01882331F083
:10043000F0E0EF5DFE4F88E5808304C0F0E0EF5D03
:10044000FE4F9083FF91EF919F918F910F900BBE84
:100450000F900FBE0F901F9018951F920F920FB61E
:100460000F9211240BB60F928F939F93EF93FF93EC
:100470009091200180911F01981306C0EAE9F0E0F5
:1004800080818F7D80830EC080911F018F5F8F716F
:1004900080931F01E0911F01F0E0EF5BFE4F808130
:1004A00080939C00FF91EF919F918F910F900BBED5
:1004B0000F900FBE0F901F901895E0912302F091BE
:1004C000240290819D7F9083672B41F0E09123026D
:1004D000F091240290819160908307C0E091230203
:1004E000F091240290819E7F9083E0912002F09110
:1004F00021029081906F9083E0912302F091240279
:10050000908194609083882344F4E0912302F091D9
:10051000240290819068908307C0E0912302F091BB
:10052000240290819F77908386FF08C0E091230288
:10053000F091240290819064908307C0E09123029F
:10054000F091240290819F7B908385FF08C0E09109
:100550002302F091240290819062908307C0E09181
:100560002302F091240290819F7D908384FF08C034
:10057000E0912302F091240290819061908307C062
:10058000E0912302F091240290819F7E9083E0917C
:100590002302F091240290819B7F9083E0912302BB
:1005A000F091240290819460908383FF08C0E091D1
:1005B0002302F091240290819068908307C0E0911B
:1005C0002302F091240290819F77908382FF08C0DC
:1005D000E0912302F091240290819064908307C0FF
:1005E000E0912302F091240290819F7B908381FF10
:1005F00008C0E0912302F0912402908190629083E0
:1006000007C0E0912302F091240290819F7D9083A6
:1006100080FF08C0E0912302F09124028081806174
:10062000808307C0E0912302F091240280818F7EB5
:100630008083E0912302F091240280818B7F80836C
:100640000895E0912002F091210220812F702083F3
:10065000E0912302F09124022081206F2083E09119
:100660002302F0912402208122602083892B41F013
:10067000E0912302F091240280818160808307C091
:10068000E0912302F091240280818E7F8083E091AB
:100690002302F0912402808184608083E09119021A
:1006A000F0911A028081882314F080E001C080E874
:1006B000908196FF02C0806401C08F7B908195FF7E
:1006C00002C0806201C08F7D908194FF02C0806172
:1006D00001C08F7EE0912302F091240290819B7FE4
:1006E0009083E0912302F0912402908194609083A2
:1006F000E0911902F0911A029081992314F4886014
:1007000001C0877F908196FF02C0846001C08B7F0B
:10071000908195FF02C0826001C08D7F908194FF1F
:1007200002C0816001C08E7FE0912302F09124021B
:1007300090819B7F90830895CF93DF9380E090E03A
:100740000E942103CBE0D0E006C080E090E00E9450
:100750002103219711F08823C4F3DF91CF910895ED
:1007600061E070E00E945D020E949C030895CF93B7
:1007700081E090E00E942103C82F0E949C038C2FEF
:10078000CF910895CF93DF93EC018881882351F0B6
:10079000219661E070E00E945D020E949C038991B5
:1007A0008111F7CFDF91CF9108950F931F93CF93CE
:1007B000DF93FC01D62F8081882351F08F010F5FDA
:1007C0001F4F611109C01FC0CF5FDC1730F401C09B
:1007D000C0E0CD1770F017C0C1E061E070E00E948A
:1007E0005D020E949C03F80181918F018111ECCF81
:1007F000F0CFCF5F61E070E080E20E945D020E9476
:100800009C03CD17B0F3DF91CF911F910F91089505
:10081000CF93C82F882349F061E070E080E20E9406
:100820005D020E949C03C150B9F7CF91089560E02A
:1008300070E081E00E945D020E949C030895262FD3
:100840008130910581F030F082309105A9F0039755
:10085000E1F0089560E070E080E8820F0E945D02A0
:100860000E949C03089560E070E080EC820F0E947B
:100870005D020E949C03089560E070E084E9820FAD
:100880000E945D020E949C03089560E070E084ED88
:10089000820F0E945D020E949C030895E091200255
:1008A000F091210287E08083E0912302F0912402FD
:1008B00088E080832FEF83EF91E0215080409040CB
:1008C000E1F700C0000060E070E083E30E945D0299
:1008D00020ED2A95F1F760E070E083E30E945D026D
:1008E00080ED8A95F1F760E070E08BE20E945D0296
:1008F00095EC9A95F1F7000060E070E08CE00E94C2
:100900005D0225EC2A95F1F7000060E070E081E0DF
:100910000E945D0287EE97E10197F1F700C00000A9
:1009200060E070E086E00E945D0295EC9A95F1F738
:10093000000008951F93CF93DF93EC011FB78FB78B
:100940008F778FBF709321026093200250931A0219
:10095000409319023093240220932302FB0110825A
:10096000E0912302F09124028FEF8083E09119023D
:10097000F0911A0280818870809322020E944E04B6
:100980001FBF8DE592E09983888381E293E09B838A
:100990008A838CE993E09D838C8380EB93E09F8333
:1009A0008E8387EB93E09987888782EC93E09B871F
:1009B0008A8785ED93E09D878C8788E094E09F8708
:1009C0008E8787E194E0998B888B8FE194E09B8BF5
:1009D0008A8B82EF94E09D8B8C8BCE01DF91CF913F
:1009E0001F910895CF93E0911902F0911A02C081EE
:1009F000C870809122028C278C2311F00E944E0433
:100A0000C0932202CF9108956823442321F08617D2
:100A100021F080E00895611180E00895862B08950B
:100A20008623089586230895862B8095089586272A
:100A30008623089560958623089586270895CF928A
:100A4000DF92EF92FF920F931F93FC0100811181BF
:100A500022813381FB01C080D180E280F380FC01E0
:100A6000C082D182E282F382FB0100831183228360
:100A700033831F910F91FF90EF90DF90CF900895F7
:100A8000FB012081FC012083222339F0DB01119638
:100A900031969D9191939111FCCF0895CF93DF935F
:100AA000EC019881992399F0FE01319620E030E025
:100AB000492F50E04617570731F0DE01A20FB31F50
:100AC0009C932F5F3F4F91919111F2CF02C020E094
:100AD00030E0FE01E20FF31F1082DF91CF91089505
:100AE0002F923F924F925F926F927F928F929F923E
:100AF000AF92BF92CF92DF92EF92FF920F931F932C
:100B0000CF93DF9300D000D0CDB7DEB72C011B010F
:100B10004B0177231CF42FEF821A920A9594879445
:100B2000181419040CF451C06AC09601DD209CF120
:100B3000F50140815181F40160817181641775076D
:100B400054F58C010A0D1B1DD401BC82AB82BA8204
:100B5000A982EB81FC817183608311965C934E9333
:100B60002E193F09C2F0F80140815181E981FA81D3
:100B700060817181080F191FE80FF91FFA83E9835B
:100B8000EB81FC81E80FF91FFC83EB83A80FB91FF1
:100B900064177507F4F2FFEFCF1ADF0A22E0A20E06
:100BA000B11CE2E08E0E911CC614D70409F0BDCF33
:100BB0004701FF201CF4FFEF8F1A9F0A959487943A
:100BC00018141904E4F4740101C07401821493042C
:100BD0007CF76401CE18DF085601AA0CBB1CA40CDC
:100BE000B51C880C991C840C951C31016E187F086B
:100BF000C701880F991F91958195910996CF0F9004
:100C00000F900F900F90DF91CF911F910F91FF9058
:100C1000EF90DF90CF90BF90AF909F908F907F909C
:100C20006F905F904F903F902F9008958617970791
:100C30000CF4CB0108959B01672B11F408959A01E0
:100C4000B9010E94690CAC01822F932F4115510507
:100C5000B1F70895FC01908180ED890F8A30D0F4BE
:100C6000319620E030E0A901440F551F220F331FB9
:100C7000220F331F220F331F420F531F292F30E043
:100C800020533109240F351F919180ED890F8A304F
:100C900050F302C020E030E0C90108958623089592
:100CA000009739F020E030E02F5F3F4F8217930725
:100CB000D9F7089587FF08C09195819591099927E3
:100CC00091958195910908958F779927089591FFBE
:100CD00008C091958195910993709195819591099D
:100CE000089591700895615021E030E002C0220F14
:100CF000331F6A95E2F7A90141505109B9016823F0
:100D00007923672B29F084239523821B930B089565
:100D10008423952308959DEC899F912D1124969508
:100D200096959695392F330F232F220F220F230FDD
:100D3000821B20E1929F800D11240895982F929597
:100D40009F70990F292F220F220F920F8F70890FFA
:100D50000895FC01DB01A95DBD4F1C921616170614
:100D600014F5908191110CC017C0919191110DC093
:100D700015C081932F5F3F4F26173707D4F313C059
:100D8000A7E2B2E0319620E030E09D932F5F3F4F25
:100D90006217730751F707C020E030E0F901E95D01
:100DA000FD4F80E2E6CF87E292E008954F925F9296
:100DB0006F927F92AF92BF92CF92DF92EF92FF92AB
:100DC0000F931F93CF93DF93CDB7DEB729013A017D
:100DD0009B01AC01241935094609570989899A896B
:100DE000AB89BC89BC01CD016A197B098C099D09BD
:100DF0000E94590CA8019701241935094609570981
:100E00000E949F0CCA01B9016A0D7B1D8C1D9D1D9E
:100E1000DF91CF911F910F91FF90EF90DF90CF90D6
:100E2000BF90AF907F906F905F904F90089570E06B
:100E30006115710599F041E050E021E030E090E06B
:100E4000FA01E89FA001E99F500DF89F500D112471
:100E50002F5F3F4F6217730798F702C041E050E0E1
:100E6000CA010895FC012081222341F0319680E0DF
:100E700090E0019621912111FCCF089580E090E04F
:100E80000895CF93DF93EC010E9432079C0121501B
:100E9000310962F0FE01E80FF91F9291903219F0CA
:100EA0009950923018F421503109B8F7C20FD31F6E
:100EB0001982C901DF91CF910895CF93DF93EC019F
:100EC0000E9432079C01215031091216130684F446
:100ED000DE01A80FB91FFE0180E090E040815E9125
:100EE00051934C9301962150310982179307B4F323
:100EF000DF91CF9108956F927F928F929F92AF92E0
:100F0000BF92CF92DF92EF92FF920F931F93CF93F6
:100F1000DF936B017C01EA01DC01CB01FF203CF493
:100F200088279927DC018C199D09AE09BF09BC01EE
:100F3000CD01712C0F2EFAE08F2E912CA12CB12C0B
:100F4000F02D01C0762C66246394670C8E01070D8A
:100F5000111DA50194010E949F0C605DF801608342
:100F6000622F732F842F952F161617061806190651
:100F70004CF3FF204CF4FE01E60DF11D8DE2808361
:100F80006894662461F8670CFE01E60DF11D10827D
:100F9000CE010E945D07DF91CF911F910F91FF90CD
:100FA000EF90DF90CF90BF90AF909F908F907F9009
:100FB0006F900895EF92FF920F931F93CF93DF935B
:100FC0008C01EB01992324F488279927801B910B2E
:100FD00020E00F2EFAE0EF2EF12CF02D01C0232F90
:100FE00031E0320FFE01E20FF11DB7010E94690CE2
:100FF000805D8083862F972F1816190684F311239E
:101000003CF4FE01E30FF11D8DE2808332E0320FEC
:10101000FE01E30FF11D1082CE010E945D07DF91FA
:10102000CF911F910F91FF90EF9008951F93CF9351
:10103000DF93AC01FB0180E011E0180FEF01C80F56
:10104000D11D9A01ADECBCEC0E94BE0C9695879523
:1010500096958795969587959C01220F331F880F4B
:10106000991F880F991F880F991F820F931F9A014C
:10107000281B390BC901805D88839A010E94BE0C30
:10108000AC01569547955695479556954795812FAE
:101090004115510589F6DF01A10FB11D1C92CF0149
:1010A0000E945D07DF91CF911F910895982F92952F
:1010B0009F70990F292F220F220F920F8F70890F87
:1010C0000895AC019C01ADECBCEC0E94BE0C969561
:1010D00087959695879596958795BC01660F771F9E
:1010E0009C01220F331F220F331F220F331F260FA5
:1010F000371F421B530B342F20E1829F300D1124E8
:10110000832F0895CF92DF92EF92FF92CF93DF93D8
:10111000CDB7DEB728970FB6F894DEBF0FBECDBFB0
:101120006B017C0169837A838B839C832D833E834F
:101130004F835887C216D306E406F5063CF4BE0179
:101140006B5F7F4FCE0101960E941F058D819E81AE
:10115000AF81B885892B8A2B8B2B71F469817A81B9
:101160008B819C8120E030E0A9010E949F0C6115D9
:1011700071058105910529F46D817E818F819885A6
:1011800005C06D837E838F839887F6CF28960FB630
:10119000F894DEBF0FBECDBFDF91CF91FF90EF90EF
:1011A000DF90CF90089590E002C0959587956A955D
:1011B000E2F781700895E7E2F2E090E020E850E382
:1011C00041E3382F322311F0408301C0508326952C
:1011D0009F5F31969830A9F710922F0287E292E034
:1011E0000895A42FB0E0109761F021E030E0E1E035
:1011F000F0E0EE0FFF1F2F5F3F4FA217B307C8F7B6
:1012000002C0E1E0F0E031976E237F238E239F231D
:10121000862797276823792302C0660F771F4A9590
:10122000E2F7862B972B0895FC019FB78FB78F7736
:101230008FBF9FBF87E197E09183808382E397E030
:10124000938382838DE597E09583848381EF98E093
:101250009783868384E095E09187808782E195E09B
:101260009387828784E195E09587848787E195E07D
:10127000978786878AE195E0918B808B8DE195E059
:10128000938B828B8EE095E0958B848B80E195E04B
:10129000978B868B8FE195E0918F808F80E495E02E
:1012A000938F828F8EE495E0958F848F80E795E011
:1012B000978F868F8AED97E091A380A386E198E0CF
:1012C00093A382A38BE797E095A384A381E497E09F
:1012D00097A386A386E196E091A780A78BE196E08D
:1012E00093A782A78AE296E095A784A78EE496E06A
:1012F00097A786A780E596E091AB80AB8AE596E05C
:1013000093AB82AB87E696E095AB84AB83E796E040
:1013100097AB86AB8BE896E091AF80AF8EE996E015
:1013200093AF82AF89EA96E095AF84AF86ED96E001
:1013300097AF86AFDF01A05CBF4F86E598E01196BE
:101340009C938E93129681E698E011969C938E93CF
:10135000129682E898E011969C938E93129683EDF4
:1013600098E011969C938E9312968BED98E08D9356
:101370009C93CF01089580E2809344021092410231
:10138000E5E4F2E08AE592E01192E817F907E1F767
:101390000895CF93DF9321E080E0A9E3B2E0EDE38D
:1013A000F2E060E071E001C02F5F9FEF920F91309B
:1013B00009F44BC038F0923009F48CC0933009F432
:1013C000CEC00EC140915A0250915B02EA01988151
:1013D000906898834091370250913802EA019881D1
:1013E0009F7798834091420250914302EA013881ED
:1013F00034773C939081432F49279423308399235A
:1014000099F0943019F4EB0188810AC0903119F4F5
:10141000EB01898109C0903219F4EB018A8104C083
:10142000903411F4EB018B8140915A0250915B0290
:10143000EA0198819F779883409137025091380252
:10144000EA01988190689883AFCF40915A025091F9
:101450005B02EA0198819160988340913702509134
:101460003802EA0198819E7F988340914202509110
:101470004302EA013881347711963C9311979181A8
:10148000432F492794233183992399F0943019F4F9
:10149000EB018C810AC0903119F4EB018D8109C0F8
:1014A000903219F4EB018E8104C0903411F4EB01F9
:1014B0008F8140915A0250915B02EA0198819E7F90
:1014C00098834091370250913802EA0198819160E7
:1014D00098836ACF40915A0250915B02EA01988149
:1014E000926098834091370250913802EA019881C6
:1014F0009D7F98834091420250914302EA013881D6
:10150000347712963C9312979281432F4927942364
:101510003283992399F0943019F4EB0188850AC03D
:10152000903119F4EB01898509C0903219F4EB016F
:101530008A8504C0903411F4EB018B8540915A02E6
:1015400050915B02EA0198819D7F98834091370218
:1015500050913802EA0198819260988325CFE091FA
:101560005A02F0915B02908198609083E09137027B
:10157000F09138029081977F9083E0914202F09140
:1015800043022081247720933C02EDE3F2E0938133
:10159000322F392793232383992399F0943019F418
:1015A00080910C010AC0903119F480910D0109C09D
:1015B000903219F480910E0104C0903411F480919E
:1015C0000F01E0915A02F0915B029081977F908326
:1015D000E0913702F091380290819860908303C0C7
:1015E000243008F4E1CEDF91CF910895CF93DF93BB
:1015F000EC010E94C909882389F0809344029091EC
:101600004102943158F4E0914102F0E0EC5BFD4F6F
:101610008183809141028F5F8093410286E1E4E4FF
:10162000F2E0DE0101900D928A95E1F7CE01DF91A3
:10163000CF910895CF93DF9300D000D000D0CDB7E5
:10164000DEB7FC012FB780E2809344029FB79F77FB
:101650009FBFF0935B02E0935A0270934302609342
:10166000420250933802409337028BE88083E09126
:101670003702F091380284E78083A9E3B2E08C93CB
:10168000EDE3F2E0808311968C931197818312969B
:101690008C931297828313968C93838310924102CA
:1016A0002FBFE0913702F091380280818B688083F0
:1016B00029EC39E03A83298346EF5AE05C834B8377
:1016C0006BEB79E07E836D833A815C817E8180E083
:1016D00090E026960FB6F894DEBF0FBECDBFDF9127
:1016E000CF91089517BA8FEF88BB84BB15BA8FB717
:1016F00080688FBF0895CF93DF93CDB7DEB7CC5905
:10170000D1090FB6F894DEBF0FBECDBF06B383B3C9
:101710000E94720B2BE330E049E350E06AE370E093
:10172000CE0187960E949A04ABA8BCA8E9ACFAAC9B
:10173000CE01CD960E9414092F96CEACDFAC2F9728
:1017400041E060E0CE0189579F4F0E944F0143E284
:1017500050E061E270E082E290E00E941A0BC9560C
:10176000DF4F2883C759D040C856DF4F3883C85948
:10177000D040C756DF4F4883C959D040C656DF4FC7
:101780005883CA59D040C556DF4F6883CB59D040E3
:10179000C456DF4F7883CC59D040CD56DF4FE88117
:1017A000F981C359D04080E094E00995EBADFCADE0
:1017B000099516B383B364E070E080E090E0F70130
:1017C000099567E080E191E0F501099562E070E03C
:1017D00081E090E0F701099563E088E191E0F5018F
:1017E0000995011771F0A1968EAC9FACA197612F5E
:1017F000802FF6010995BE01695E7F4F90E0F401EC
:10180000099560E070E082E090E0F701099564E0FE
:10181000CE014796F5010995612F802FF6010995B4
:1018200080FF03C085B38F5F85BB612F802FF601DA
:10183000099581FF03C085B3815085BB612F802F3F
:10184000F601099582FF09C0EFA1F8A560E070E0FC
:101850008FE10995EBA5FCA5099560E070E083E0B8
:1018600090E0F70109958DA49EA4C756DF4FE8814B
:10187000F981C959D040CE01019609958981F401B9
:101880000995012F93CF1F920F920FB60F9211243B
:101890008F9380915C02811101C015BA80915C0226
:1018A0008F5F80935C028F910F900FBE0F901F90FF
:1018B0001895DB018F939F930E94CD0CBF91AF9140
:1018C000A29F800D911DA39F900DB29F900D11249A
:1018D000089597FB072E16F4009407D077FD09D0E2
:1018E0000E94D80C07FC05D03EF4909581959F4F3F
:1018F0000895709561957F4F0895A1E21A2EAA1B55
:10190000BB1BFD010DC0AA1FBB1FEE1FFF1FA217AF
:10191000B307E407F50720F0A21BB30BE40BF50BAC
:10192000661F771F881F991F1A9469F76095709535
:10193000809590959B01AC01BD01CF010895052EC6
:1019400097FB1EF400940E94B60C57FD07D00E942E
:101950007D0C07FC03D04EF40C94B60C50954095CA
:10196000309521953F4F4F4F5F4F0895909580954B
:10197000709561957F4F8F4F9F4F0895A29FB00143
:10198000B39FC001A39F700D811D1124911DB29FB3
:10199000700D811D1124911D08950E94BE0CA59FFC
:1019A000900DB49F900DA49F800D911D112408955A
:1019B000AA1BBB1B51E107C0AA1FBB1FA617B70775
:1019C00010F0A61BB70B881F991F5A95A9F7809591
:0C19D0009095BC01CD010895F894FFCF64
:1019DC003132334134353642373839432A30234497
:0C19EC00426F6F742075700052756E0021
:00000001FF
