:100000000C9446000C9465000C9465000C946500FB
:100010000C9465000C9465000C9465000C946500CC
:100020000C9465000C9465000C9465000C946500BC
:100030000C9465000C9465000C9465000C946500AC
:100040000C9465000C9465000C942E010C946601D0
:100050000C9465000C94A9000C9465000C94650048
:100060000C9465000C9465000C9465000C9465007C
:100070000C9465000C9465000C948F010C94CA01DB
:100080000C9465000C9465000C94650011241FBE4F
:10009000CFEFD0E1DEBFCDBF11E0A0E0B1E0E2E6FE
:1000A000F9E000E00BBF02C007900D92A831B10744
:1000B000D9F721E0A8E1B1E001C01D92A93DB20746
:1000C000E1F70E9475000C94AF040C940000E4E684
:1000D000F0E0808184608083E5E6F0E080818360E9
:1000E00080838FB780688FBF0895CF93DF93CDB79C
:1000F000DEB766970FB6F894DEBF0FBECDBF0E9485
:1001000067002BE330E049E350E06AE370E0CE01A2
:1001100001960E944504ED84FE840B891C89ED89BB
:10012000FE89099560E070E080E090E0F8010995B3
:100130006AE080E091E0F701099560E070E081E01D
:1001400090E0F80109956CE08BE091E0F7010995EA
:10015000E6CF1F920F920FB60F9211240BB60F929B
:100160002F933F938F939F93EF93FF9384B190E0EE
:100170009093A4018093A30125B18091A301909154
:10018000A401922B9093A4018093A3018091A201DA
:100190008430A0F48091A2018F5F8093A20120910E
:1001A000A3013091A4018091A5019091A601820F35
:1001B000931F9093A6018093A50143C0E091A701EE
:1001C000F091A8018091A5019091A6019595879540
:1001D00095958795EE0FFF1FE554FE4F9183808321
:1001E0001092A6011092A5011092A2012091A701E0
:1001F0003091A8018091A9019091AA01281739078F
:1002000054F48091A7019091A80101969093A801C0
:100210008093A70104C01092A8011092A70187B192
:10022000807E87B9E091A701F091A801EE0FFF1F32
:10023000E555FE4F8081918127B18F719927822BDF
:1002400087B9FF91EF919F918F913F912F910F90DF
:100250000BBE0F900FBE0F901F9018951F920F921C
:100260000FB60F9211240BB60F928F939F93EF93BB
:10027000FF938BB19AB1887180935D01E0915F012A
:10028000EF5FEF7180915E01E81304C082E080931C
:100290005D0111C09CB1E0935F0180915D018823F5
:1002A00031F0F0E0EE59FE4F88E5808304C0F0E0C5
:1002B000EE59FE4F9083FF91EF919F918F910F9098
:1002C0000BBE0F900FBE0F901F9018951F920F92AC
:1002D0000FB60F9211240BB60F928F939F93EF934B
:1002E000FF939091610180916001981302C055982D
:1002F0000BC0E0916001EF5FEF71E0936001F0E00F
:10030000EE57FE4F80818CB9FF91EF919F918F91B5
:100310000F900BBE0F900FBE0F901F9018951F925D
:100320000F920FB60F9211240BB60F928F939F93DB
:10033000EF93FF9380919B0090919A008871809336
:100340001801E0911A01EF5FEF7180911901E81334
:1003500004C082E08093180112C090919C00E09349
:100360001A0180911801882331F0F0E0E35EFE4F1E
:1003700088E5808304C0F0E0E35EFE4F9083FF9148
:10038000EF919F918F910F900BBE0F900FBE0F902A
:100390001F9018951F920F920FB60F9211240BB653
:1003A0000F928F939F93EF93FF9390911C018091F5
:1003B0001B01981306C0EAE9F0E080818F7D8083FD
:1003C0000EC080911B018F5F8F7180931B01E091A4
:1003D0001B01F0E0E35CFE4F808180939C00FF9165
:1003E000EF919F918F910F900BBE0F900FBE0F90CA
:1003F0001F901895E091D501F091D60190819D7FD5
:100400009083672B41F0E091D501F091D601908166
:100410009160908307C0E091D501F091D601908161
:100420009E7F9083E091D201F091D3019081906FF3
:100430009083E091D501F091D601908194609083F2
:10044000882344F4E091D501F091D6019081906821
:10045000908307C0E091D501F091D60190819F77FC
:10046000908386FF08C0E091D501F091D60190817C
:100470009064908307C0E091D501F091D6019081FE
:100480009F7B908385FF08C0E091D501F091D60154
:1004900090819062908307C0E091D501F091D601E0
:1004A00090819F7D908384FF08C0E091D501F091F9
:1004B000D60190819061908307C0E091D501F091C1
:1004C000D60190819F7E9083E091D501F091D60175
:1004D00090819B7F9083E091D501F091D60190812E
:1004E0009460908383FF08C0E091D501F091D6011C
:1004F00090819068908307C0E091D501F091D6017A
:1005000090819F77908382FF08C0E091D501F091A0
:10051000D60190819064908307C0E091D501F0915D
:10052000D60190819F7B908381FF08C0E091D50127
:10053000F091D60190819062908307C0E091D5013F
:10054000F091D60190819F7D908380FF08C0E0915B
:10055000D501F091D60180818061808307C0E09150
:10056000D501F091D60180818F7E8083E091D50105
:10057000F091D60180818B7F80830895E091D20134
:10058000F091D30120812F702083E091D501F0916B
:10059000D6012081206F2083E091D501F091D60112
:1005A000208122602083892B41F0E091D501F091D8
:1005B000D60180818160808307C0E091D501F091F0
:1005C000D60180818E7F8083E091D501F091D601A4
:1005D000808184608083E091CB01F091CC018081A7
:1005E000882314F080E001C080E8908196FF02C06B
:1005F000806401C08F7B908195FF02C0806201C042
:100600008F7D908194FF02C0806101C08F7EE09158
:10061000D501F091D60190819B7F9083E091D50127
:10062000F091D601908194609083E091CB01F0919C
:10063000CC019081992314F4886001C0877F908158
:1006400096FF02C0846001C08B7F908195FF02C03D
:10065000826001C08D7F908194FF02C0816001C0E3
:100660008E7FE091D501F091D60190819B7F9083A0
:100670000895CF93DF9380E090E00E94BE02CBE02C
:10068000D0E006C080E090E00E94BE02219711F009
:100690008823C4F3DF91CF91089561E070E00E9458
:1006A000FA010E9439030895CF9381E090E00E94FF
:1006B000BE02C82F0E9439038C2FCF910895CF938B
:1006C000DF93EC018881882351F0219661E070E08E
:1006D0000E94FA010E94390389918111F7CFDF91BD
:1006E000CF9108950F931F93CF93DF93FC01D62FE3
:1006F0008081882351F08F010F5F1F4F611109C066
:100700001FC0CF5FDC1730F401C0C0E0CD1770F020
:1007100017C0C1E061E070E00E94FA010E94390355
:10072000F80181918F018111ECCFF0CFCF5F61E0B3
:1007300070E080E20E94FA010E943903CD17B0F305
:10074000DF91CF911F910F910895CF93C82F8823E8
:1007500049F061E070E080E20E94FA010E943903F2
:10076000C150B9F7CF91089560E070E081E00E9438
:10077000FA010E9439030895262F8130910581F0F6
:1007800030F082309105A9F00397E1F0089560E020
:1007900070E080E8820F0E94FA010E9439030895F8
:1007A00060E070E080EC820F0E94FA010E94390341
:1007B000089560E070E084E9820F0E94FA010E94CF
:1007C0003903089560E070E084ED820F0E94FA0121
:1007D0000E9439030895E091D201F091D30187E09E
:1007E0008083E091D501F091D60188E080832FEFDE
:1007F00083EF91E0215080409040E1F700C000007D
:1008000060E070E083E30E94FA0120ED2A95F1F7A1
:1008100060E070E08BE20E94FA0180ED8A95F1F7CA
:1008200060E070E08BE20E94FA0195EC9A95F1F796
:10083000000060E070E08CE00E94FA0125EC2A954F
:10084000F1F7000060E070E081E00E94FA0187EEBD
:1008500097E10197F1F700C0000060E070E086E0EA
:100860000E94FA0195EC9A95F1F7000060E070E0C3
:100870008FE10E94FA010E94390360E070E083E09A
:100880000E94FA010E94390308951F93CF93DF93CA
:10089000EC011FB78FB78F778FBF7093D301609331
:1008A000D2015093CC014093CB013093D6012093D9
:1008B000D501FB011082E091D501F091D6018FEFB7
:1008C0008083E091CB01F091CC018081887080938E
:1008D000D4010E94EB031FBF8AEF91E099838883C4
:1008E0008EEB92E09B838A8389E393E09D838C83E4
:1008F0008DE493E09F838E8384E593E099878887D6
:100900008FE593E09B878A8782E793E09D878C87BA
:1009100085EA93E09F878E8784EB93E0998B888BA1
:100920008CEB93E09B8B8A8B8DE994E09D8B8C8B79
:10093000CE01DF91CF911F910895CF93E091CB012C
:10094000F091CC01C081C8708091D4018C278C2398
:1009500011F00E94EB03C093D401CF910895F89455
:02096000FFCFC7
:100962004F6C612053657267696F00426F6D20742E
:08097200726162616C686F00A4
:00000001FF
