:100000000C9446000C9465000C9465000C946500FB
:100010000C9465000C9465000C9465000C946500CC
:100020000C9465000C9465000C9465000C946500BC
:100030000C9465000C9465000C9465000C946500AC
:100040000C94500A0C9465000C9491010C94C90115
:100050000C9465000C94CA000C9465000C94650027
:100060000C9465000C9465000C9465000C9465007C
:100070000C9465000C9465000C94F2010C942D0214
:100080000C9465000C9465000C94650011241FBE4F
:10009000CFEFD0E1DEBFCDBF11E0A0E0B1E0E8EFEF
:1000A000F5E100E00BBF02C007900D92AC30B10744
:1000B000D9F722E0ACE0B1E001C01D92A832B2074E
:1000C000E1F70E94C4090C94FA0A0C9400002091F4
:1000D0000802211140C02FEF21BF23B7287F23BF83
:1000E0008034910511F148F488309105B1F08032E7
:1000F0009105B9F0019749F50CC0811521E09207EF
:10010000E1F0811524E09207E1F080389105E9F4EF
:1001100010C083B7816083BF1BC083B7826083BF79
:1001200017C083B7836083BF13C083B7846083BF66
:100130000FC083B7856083BF0BC083B7866083BF62
:1001400007C083B7876083BF03C083B7876083BF5F
:1001500081E080930802089593B79F7C93BF82301B
:1001600041F0833051F0813059F483B7806183BF0F
:10017000089583B7806283BF089583B7806383BF88
:10018000089581BF089583B7887F83BF12BE109200
:10019000080208951F920F920FB60F9211240BB60A
:1001A0000F922F933F938F939F93EF93FF9384B17D
:1001B00090E0909398018093970125B180919701E9
:1001C00090919801922B9093980180939701809140
:1001D00096018430A0F4809196018F5F8093960100
:1001E00020919701309198018091990190919A0105
:1001F000820F931F90939A018093990143C0E091DD
:100200009B01F0919C018091990190919A019595A3
:10021000879595958795EE0FFF1FE155FE4F9183CA
:10022000808310929A011092990110929601209168
:100230009B0130919C0180919D0190919E01281716
:10024000390754F480919B0190919C010196909301
:100250009C0180939B0104C010929C0110929B0111
:1002600087B1807E87B9E0919B01F0919C01EE0FF0
:10027000FF1FE156FE4F8081918127B18F71992731
:10028000822B87B9FF91EF919F918F913F912F9191
:100290000F900BBE0F900FBE0F901F9018951092ED
:1002A000080223B7277B23BF623041F0633051F04F
:1002B000613059F423B7206423BF07C023B72860F7
:1002C00023BF03C023B7286423BF27B72E7F27BFD0
:1002D00027B72D7F27BF423041F0433051F04130E6
:1002E00071F427B7216027BF0AC027B7226027BF54
:1002F00006C027B7216027BF27B7226027BF2CEA97
:1003000030E0FC013183208321EC30E03783268309
:1003100027E630E03587248723EC30E037872687CF
:1003200008951F920F920FB60F9211240BB60F92E1
:100330008F939F93EF93FF938BB19AB188718093C2
:100340005101E0915301EF5FEF7180915201E81389
:1003500004C082E08093510111C09CB1E09353012D
:1003600080915101882331F0F0E0EA5AFE4F88E590
:10037000808304C0F0E0EA5AFE4F9083FF91EF9132
:100380009F918F910F900BBE0F900FBE0F901F90FB
:1003900018951F920F920FB60F9211240BB60F9261
:1003A0008F939F93EF93FF93909155018091540108
:1003B000981302C055980BC0E0915401EF5FEF71A4
:1003C000E0935401F0E0EA58FE4F80818CB9FF9130
:1003D000EF919F918F910F900BBE0F900FBE0F90DA
:1003E0001F9018951F920F920FB60F9211240BB603
:1003F0000F928F939F93EF93FF9380919B00909127
:100400009A00887180930C01E0910E01EF5FEF710B
:1004100080910D01E81304C082E080930C0112C0AA
:1004200090919C00E0930E0180910C01882331F0A3
:10043000F0E0EF5EFE4F88E5808304C0F0E0EF5E01
:10044000FE4F9083FF91EF919F918F910F900BBE84
:100450000F900FBE0F901F9018951F920F920FB61E
:100460000F9211240BB60F928F939F93EF93FF93EC
:100470009091100180910F01981306C0EAE9F0E015
:1004800080818F7D80830EC080910F018F5F8F717F
:1004900080930F01E0910F01F0E0EF5CFE4F80814F
:1004A00080939C00FF91EF919F918F910F900BBED5
:1004B0000F900FBE0F901F901895E0911302F091CE
:1004C000140290819D7F9083672B41F0E09113028D
:1004D000F091140290819160908307C0E091130223
:1004E000F091140290819E7F9083E0911002F09130
:1004F00011029081906F9083E0911302F0911402A9
:10050000908194609083882344F4E0911302F091E9
:10051000140290819068908307C0E0911302F091DB
:10052000140290819F77908386FF08C0E0911302A8
:10053000F091140290819064908307C0E0911302BF
:10054000F091140290819F7B908385FF08C0E09119
:100550001302F091140290819062908307C0E091A1
:100560001302F091140290819F7D908384FF08C054
:10057000E0911302F091140290819061908307C082
:10058000E0911302F091140290819F7E9083E0919C
:100590001302F091140290819B7F9083E0911302EB
:1005A000F091140290819460908383FF08C0E091E1
:1005B0001302F091140290819068908307C0E0913B
:1005C0001302F091140290819F77908382FF08C0FC
:1005D000E0911302F091140290819064908307C01F
:1005E000E0911302F091140290819F7B908381FF30
:1005F00008C0E0911302F091140290819062908300
:1006000007C0E0911302F091140290819F7D9083C6
:1006100080FF08C0E0911302F09114028081806194
:10062000808307C0E0911302F091140280818F7ED5
:100630008083E0911302F091140280818B7F80838C
:100640000895E0911002F091110220812F70208313
:10065000E0911302F09114022081206F2083E09139
:100660001302F0911402208122602083892B41F033
:10067000E0911302F091140280818160808307C0B1
:10068000E0911302F091140280818E7F8083E091CB
:100690001302F0911402808184608083E09109024A
:1006A000F0910A028081882314F080E001C080E884
:1006B000908196FF02C0806401C08F7B908195FF7E
:1006C00002C0806201C08F7D908194FF02C0806172
:1006D00001C08F7EE0911302F091140290819B7F04
:1006E0009083E0911302F0911402908194609083C2
:1006F000E0910902F0910A029081992314F4886034
:1007000001C0877F908196FF02C0846001C08B7F0B
:10071000908195FF02C0826001C08D7F908194FF1F
:1007200002C0816001C08E7FE0911302F09114023B
:1007300090819B7F90830895CF93DF9380E090E03A
:100740000E942103CBE0D0E006C080E090E00E9450
:100750002103219711F08823C4F3DF91CF910895ED
:1007600061E070E00E945D020E949C030895CF93B7
:1007700081E090E00E942103C82F0E949C038C2FEF
:10078000CF910895CF93DF93EC018881882351F0B6
:10079000219661E070E00E945D020E949C038991B5
:1007A0008111F7CFDF91CF9108950F931F93CF93CE
:1007B000DF93FC01D62F8081882351F08F010F5FDA
:1007C0001F4F611109C01FC0CF5FDC1730F401C09B
:1007D000C0E0CD1770F017C0C1E061E070E00E948A
:1007E0005D020E949C03F80181918F018111ECCF81
:1007F000F0CFCF5F61E070E080E20E945D020E9476
:100800009C03CD17B0F3DF91CF911F910F91089505
:10081000CF93C82F882349F061E070E080E20E9406
:100820005D020E949C03C150B9F7CF91089560E02A
:1008300070E081E00E945D020E949C030895262FD3
:100840008130910581F030F082309105A9F0039755
:10085000E1F0089560E070E080E8820F0E945D02A0
:100860000E949C03089560E070E080EC820F0E947B
:100870005D020E949C03089560E070E084E9820FAD
:100880000E945D020E949C03089560E070E084ED88
:10089000820F0E945D020E949C030895E091100265
:1008A000F091110287E08083E0911302F09114022D
:1008B00088E080832FEF83EF91E0215080409040CB
:1008C000E1F700C0000060E070E083E30E945D0299
:1008D00020ED2A95F1F760E070E083E30E945D026D
:1008E00080ED8A95F1F760E070E08BE20E945D0296
:1008F00095EC9A95F1F7000060E070E08CE00E94C2
:100900005D0225EC2A95F1F7000060E070E081E0DF
:100910000E945D0287EE97E10197F1F700C00000A9
:1009200060E070E086E00E945D0295EC9A95F1F738
:10093000000008951F93CF93DF93EC011FB78FB78B
:100940008F778FBF709311026093100250930A0249
:10095000409309023093140220931302FB0110828A
:10096000E0911302F09114028FEF8083E09109026D
:10097000F0910A0280818870809312020E944E04D6
:100980001FBF8DE592E09983888381E293E09B838A
:100990008A838CE993E09D838C8380EB93E09F8333
:1009A0008E8387EB93E09987888782EC93E09B871F
:1009B0008A8785ED93E09D878C8788E094E09F8708
:1009C0008E8787E194E0998B888B8FE194E09B8BF5
:1009D0008A8B82EF94E09D8B8C8BCE01DF91CF913F
:1009E0001F910895CF93E0910902F0910A02C0810E
:1009F000C870809112028C278C2311F00E944E0443
:100A0000C0931202CF9108956823442321F08617E2
:100A100021F080E00895611180E00895862B08950B
:100A20008623089586230895862B8095089586272A
:100A30008623089560958623089586270895CF928A
:100A4000DF92EF92FF920F931F93FC0100811181BF
:100A500022813381FB01C080D180E280F380FC01E0
:100A6000C082D182E282F382FB0100831183228360
:100A700033831F910F91FF90EF90DF90CF900895F7
:100A8000FB012081FC012083222339F0DB01119638
:100A900031969D9191939111FCCF0895CF93DF935F
:100AA000EC019881992399F0FE01319620E030E025
:100AB000492F50E04617570731F0DE01A20FB31F50
:100AC0009C932F5F3F4F91919111F2CF02C020E094
:100AD00030E0FE01E20FF31F1082DF91CF91089505
:100AE0002F923F924F925F926F927F928F929F923E
:100AF000AF92BF92CF92DF92EF92FF920F931F932C
:100B0000CF93DF9300D000D0CDB7DEB72C011B010F
:100B10004B0177231CF42FEF821A920A9594879445
:100B2000181419040CF451C06AC09601DD209CF120
:100B3000F50140815181F40160817181641775076D
:100B400054F58C010A0D1B1DD401BC82AB82BA8204
:100B5000A982EB81FC817183608311965C934E9333
:100B60002E193F09C2F0F80140815181E981FA81D3
:100B700060817181080F191FE80FF91FFA83E9835B
:100B8000EB81FC81E80FF91FFC83EB83A80FB91FF1
:100B900064177507F4F2FFEFCF1ADF0A22E0A20E06
:100BA000B11CE2E08E0E911CC614D70409F0BDCF33
:100BB0004701FF201CF4FFEF8F1A9F0A959487943A
:100BC00018141904E4F4740101C07401821493042C
:100BD0007CF76401CE18DF085601AA0CBB1CA40CDC
:100BE000B51C880C991C840C951C31016E187F086B
:100BF000C701880F991F91958195910996CF0F9004
:100C00000F900F900F90DF91CF911F910F91FF9058
:100C1000EF90DF90CF90BF90AF909F908F907F909C
:100C20006F905F904F903F902F9008958617970791
:100C30000CF4CB0108959B01672B11F408959A01E0
:100C4000B9010E94770AAC01822F932F41155105FB
:100C5000B1F70895FC01908180ED890F8A30D0F4BE
:100C6000319620E030E0A901440F551F220F331FB9
:100C7000220F331F220F331F420F531F292F30E043
:100C800020533109240F351F919180ED890F8A304F
:100C900050F302C020E030E0C90108958623089592
:100CA000009739F020E030E02F5F3F4F8217930725
:100CB000D9F7089587FF08C09195819591099927E3
:100CC00091958195910908958F779927089591FFBE
:100CD00008C091958195910993709195819591099D
:100CE000089591700895615021E030E002C0220F14
:100CF000331F6A95E2F7A90141505109B9016823F0
:100D00007923672B29F084239523821B930B089565
:100D10008423952308959DEC899F912D1124969508
:100D200096959695392F330F232F220F220F230FDD
:100D3000821B20E1929F800D11240895982F929597
:100D40009F70990F292F220F220F920F8F70890FFA
:100D50000895FC01DB01A95EBD4F1C921616170613
:100D600014F5908191110CC017C0919191110DC093
:100D700015C081932F5F3F4F26173707D4F313C059
:100D8000A7E1B2E0319620E030E09D932F5F3F4F26
:100D90006217730751F707C020E030E0F901E95E00
:100DA000FD4F80E2E6CF87E192E008954F925F9297
:100DB0006F927F92AF92BF92CF92DF92EF92FF92AB
:100DC0000F931F93CF93DF93CDB7DEB729013A017D
:100DD0009B01AC01241935094609570989899A896B
:100DE000AB89BC89BC01CD016A197B098C099D09BD
:100DF0000E94670AA8019701241935094609570975
:100E00000E94AD0ACA01B9016A0D7B1D8C1D9D1D92
:100E1000DF91CF911F910F91FF90EF90DF90CF90D6
:100E2000BF90AF907F906F905F904F90089570E06B
:100E30006115710599F041E050E021E030E090E06B
:100E4000FA01E89FA001E99F500DF89F500D112471
:100E50002F5F3F4F6217730798F702C041E050E0E1
:100E6000CA010895FC012081222341F0319680E0DF
:100E700090E0019621912111FCCF089580E090E04F
:100E80000895CF93DF93EC010E9432079C0121501B
:100E9000310962F0FE01E80FF91F9291903219F0CA
:100EA0009950923018F421503109B8F7C20FD31F6E
:100EB0001982C901DF91CF910895CF93DF93EC019F
:100EC0000E9432079C01215031091216130684F446
:100ED000DE01A80FB91FFE0180E090E040815E9125
:100EE00051934C9301962150310982179307B4F323
:100EF000DF91CF9108956F927F928F929F92AF92E0
:100F0000BF92CF92DF92EF92FF920F931F93CF93F6
:100F1000DF936B017C01EA01DC01CB01FF203CF493
:100F200088279927DC018C199D09AE09BF09BC01EE
:100F3000CD01712C0F2EFAE08F2E912CA12CB12C0B
:100F4000F02D01C0762C66246394670C8E01070D8A
:100F5000111DA50194010E94AD0A605DF801608336
:100F6000622F732F842F952F161617061806190651
:100F70004CF3FF204CF4FE01E60DF11D8DE2808361
:100F80006894662461F8670CFE01E60DF11D10827D
:100F9000CE010E945D07DF91CF911F910F91FF90CD
:100FA000EF90DF90CF90BF90AF909F908F907F9009
:100FB0006F900895EF92FF920F931F93CF93DF935B
:100FC0008C01EB01992324F488279927801B910B2E
:100FD00020E00F2EFAE0EF2EF12CF02D01C0232F90
:100FE00031E0320FFE01E20FF11DB7010E94770AD6
:100FF000805D8083862F972F1816190684F311239E
:101000003CF4FE01E30FF11D8DE2808332E0320FEC
:10101000FE01E30FF11D1082CE010E945D07DF91FA
:10102000CF911F910F91FF90EF9008951F93CF9351
:10103000DF93AC01FB0180E011E0180FEF01C80F56
:10104000D11D9A01ADECBCEC0E94CC0A9695879517
:1010500096958795969587959C01220F331F880F4B
:10106000991F880F991F880F991F820F931F9A014C
:10107000281B390BC901805D88839A010E94CC0A24
:10108000AC01569547955695479556954795812FAE
:101090004115510589F6DF01A10FB11D1C92CF0149
:1010A0000E945D07DF91CF911F910895982F92952F
:1010B0009F70990F292F220F220F920F8F70890F87
:1010C0000895AC019C01ADECBCEC0E94CC0A969555
:1010D00087959695879596958795BC01660F771F9E
:1010E0009C01220F331F220F331F220F331F260FA5
:1010F000371F421B530B342F20E1829F300D1124E8
:10110000832F0895CF92DF92EF92FF92CF93DF93D8
:10111000CDB7DEB728970FB6F894DEBF0FBECDBFB0
:101120006B017C0169837A838B839C832D833E834F
:101130004F835887C216D306E406F5063CF4BE0179
:101140006B5F7F4FCE0101960E941F058D819E81AE
:10115000AF81B885892B8A2B8B2B71F469817A81B9
:101160008B819C8120E030E0A9010E94AD0A6115CD
:1011700071058105910529F46D817E818F819885A6
:1011800005C06D837E838F839887F6CF28960FB630
:10119000F894DEBF0FBECDBFDF91CF91FF90EF90EF
:1011A000DF90CF90089590E002C0959587956A955D
:1011B000E2F781700895E7E1F2E090E020E850E383
:1011C00041E3382F322311F0408301C0508326952C
:1011D0009F5F31969830A9F710921F0287E192E045
:1011E0000895A42FB0E0109761F021E030E0E1E035
:1011F000F0E0EE0FFF1F2F5F3F4FA217B307C8F7B6
:1012000002C0E1E0F0E031976E237F238E239F231D
:10121000862797276823792302C0660F771F4A9590
:10122000E2F7862B972B0895FC019FB78FB78F7736
:101230008FBF9FBF87E197E09183808382E397E030
:10124000938382838DE597E09583848381EF98E093
:101250009783868384E095E09187808782E195E09B
:101260009387828784E195E09587848787E195E07D
:10127000978786878AE195E0918B808B8DE195E059
:10128000938B828B8EE095E0958B848B80E195E04B
:10129000978B868B8FE195E0918F808F80E495E02E
:1012A000938F828F8EE495E0958F848F80E795E011
:1012B000978F868F8AED97E091A380A386E198E0CF
:1012C00093A382A38BE797E095A384A381E497E09F
:1012D00097A386A386E196E091A780A78BE196E08D
:1012E00093A782A78AE296E095A784A78EE496E06A
:1012F00097A786A780E596E091AB80AB8AE596E05C
:1013000093AB82AB87E696E095AB84AB83E796E040
:1013100097AB86AB8BE896E091AF80AF8EE996E015
:1013200093AF82AF89EA96E095AF84AF86ED96E001
:1013300097AF86AFDF01A05CBF4F86E598E01196BE
:101340009C938E93129681E698E011969C938E93CF
:10135000129682E898E011969C938E93129683EDF4
:1013600098E011969C938E9312968BED98E08D9356
:101370009C93CF01089517BA8FEF88BB84BB15BA31
:101380008FB780688FBF0895CF93DF93CDB7DEB757
:10139000C058D1090FB6F894DEBF0FBECDBF06B35B
:1013A00083B30E94BB092BE330E049E350E06AE3DA
:1013B00070E0CE0141960E949A04AD8CBE8CCBA009
:1013C000DCA0CE0187960E941409EFA8F8AC41E09A
:1013D00060E0CE018F589F4F0E944F01EF96EEAD17
:1013E000FFADEF9780E094E0099501C0012FEDA1DA
:1013F000FEA1099516B383B364E070E080E090E04D
:10140000F601099567E080E091E0F501099562E059
:1014100070E081E090E0F601099563E088E091E0FA
:10142000F5010995011771F02B968EAC9FAC2B97A7
:10143000612F802FF7010995BE016F5F7F4F90E00C
:10144000F401099560E070E082E090E0F601099512
:1014500064E0CE010196F5010995612F802FF70117
:101460000995813019F485B38F5F85BB612F802F7B
:10147000F7010995823019F485B3815085BB612F3E
:10148000802FF7010995843009F0B0CFE989FA89F6
:1014900060E070E08FE10995ED89FE890995A6CF9E
:1014A0001F920F920FB60F9211248F9380912702F3
:1014B000811102C08FEF85BB809127028F5F8093DF
:1014C00027028F910F900FBE0F901F901895DB0190
:1014D0008F939F930E94DB0ABF91AF91A29F800DD3
:1014E000911DA39F900DB29F900D1124089597FB1D
:1014F000072E16F4009407D077FD09D00E94E60A63
:1015000007FC05D03EF4909581959F4F0895709506
:1015100061957F4F0895A1E21A2EAA1BBB1BFD0106
:101520000DC0AA1FBB1FEE1FFF1FA217B307E407C2
:10153000F50720F0A21BB30BE40BF50B661F771F1A
:10154000881F991F1A9469F76095709580959095FA
:101550009B01AC01BD01CF010895052E97FB1EF440
:1015600000940E94C40A57FD07D00E948B0A07FC12
:1015700003D04EF40C94C40A5095409530952195B3
:101580003F4F4F4F5F4F08959095809570956195AF
:101590007F4F8F4F9F4F0895A29FB001B39FC0010F
:1015A000A39F700D811D1124911DB29F700D811D8F
:1015B0001124911D08950E94CC0AA59F900DB49FFF
:1015C000900DA49F800D911D11240895AA1BBB1B93
:1015D00051E107C0AA1FBB1FA617B70710F0A61B33
:1015E000B70B881F991F5A95A9F780959095BC0154
:0815F000CD010895F894FFCF2E
:0C15F800426F6F742075700052756E0019
:00000001FF
